{
  "contractName": "BVAL20",
  "abi": [
    {
      "inputs": [],
      "stateMutability": "nonpayable",
      "type": "constructor"
    },
    {
      "anonymous": false,
      "inputs": [
        {
          "indexed": true,
          "internalType": "address",
          "name": "owner",
          "type": "address"
        },
        {
          "indexed": true,
          "internalType": "address",
          "name": "spender",
          "type": "address"
        },
        {
          "indexed": false,
          "internalType": "uint256",
          "name": "value",
          "type": "uint256"
        }
      ],
      "name": "Approval",
      "type": "event"
    },
    {
      "anonymous": false,
      "inputs": [
        {
          "indexed": false,
          "internalType": "address",
          "name": "account",
          "type": "address"
        }
      ],
      "name": "Paused",
      "type": "event"
    },
    {
      "anonymous": false,
      "inputs": [
        {
          "indexed": true,
          "internalType": "bytes32",
          "name": "role",
          "type": "bytes32"
        },
        {
          "indexed": true,
          "internalType": "bytes32",
          "name": "previousAdminRole",
          "type": "bytes32"
        },
        {
          "indexed": true,
          "internalType": "bytes32",
          "name": "newAdminRole",
          "type": "bytes32"
        }
      ],
      "name": "RoleAdminChanged",
      "type": "event"
    },
    {
      "anonymous": false,
      "inputs": [
        {
          "indexed": true,
          "internalType": "bytes32",
          "name": "role",
          "type": "bytes32"
        },
        {
          "indexed": true,
          "internalType": "address",
          "name": "account",
          "type": "address"
        },
        {
          "indexed": true,
          "internalType": "address",
          "name": "sender",
          "type": "address"
        }
      ],
      "name": "RoleGranted",
      "type": "event"
    },
    {
      "anonymous": false,
      "inputs": [
        {
          "indexed": true,
          "internalType": "bytes32",
          "name": "role",
          "type": "bytes32"
        },
        {
          "indexed": true,
          "internalType": "address",
          "name": "account",
          "type": "address"
        },
        {
          "indexed": true,
          "internalType": "address",
          "name": "sender",
          "type": "address"
        }
      ],
      "name": "RoleRevoked",
      "type": "event"
    },
    {
      "anonymous": false,
      "inputs": [
        {
          "indexed": true,
          "internalType": "address",
          "name": "from",
          "type": "address"
        },
        {
          "indexed": true,
          "internalType": "address",
          "name": "to",
          "type": "address"
        },
        {
          "indexed": false,
          "internalType": "uint256",
          "name": "value",
          "type": "uint256"
        }
      ],
      "name": "Transfer",
      "type": "event"
    },
    {
      "anonymous": false,
      "inputs": [
        {
          "indexed": false,
          "internalType": "address",
          "name": "account",
          "type": "address"
        }
      ],
      "name": "Unpaused",
      "type": "event"
    },
    {
      "inputs": [],
      "name": "DEFAULT_ADMIN_ROLE",
      "outputs": [
        {
          "internalType": "bytes32",
          "name": "",
          "type": "bytes32"
        }
      ],
      "stateMutability": "view",
      "type": "function"
    },
    {
      "inputs": [],
      "name": "MINTER_ADMIN_ROLE",
      "outputs": [
        {
          "internalType": "bytes32",
          "name": "",
          "type": "bytes32"
        }
      ],
      "stateMutability": "view",
      "type": "function"
    },
    {
      "inputs": [],
      "name": "MINTER_ROLE",
      "outputs": [
        {
          "internalType": "bytes32",
          "name": "",
          "type": "bytes32"
        }
      ],
      "stateMutability": "view",
      "type": "function"
    },
    {
      "inputs": [],
      "name": "PAUSER_ADMIN_ROLE",
      "outputs": [
        {
          "internalType": "bytes32",
          "name": "",
          "type": "bytes32"
        }
      ],
      "stateMutability": "view",
      "type": "function"
    },
    {
      "inputs": [],
      "name": "PAUSER_ROLE",
      "outputs": [
        {
          "internalType": "bytes32",
          "name": "",
          "type": "bytes32"
        }
      ],
      "stateMutability": "view",
      "type": "function"
    },
    {
      "inputs": [
        {
          "internalType": "address",
          "name": "owner",
          "type": "address"
        },
        {
          "internalType": "address",
          "name": "spender",
          "type": "address"
        }
      ],
      "name": "allowance",
      "outputs": [
        {
          "internalType": "uint256",
          "name": "",
          "type": "uint256"
        }
      ],
      "stateMutability": "view",
      "type": "function"
    },
    {
      "inputs": [
        {
          "internalType": "address",
          "name": "spender",
          "type": "address"
        },
        {
          "internalType": "uint256",
          "name": "amount",
          "type": "uint256"
        }
      ],
      "name": "approve",
      "outputs": [
        {
          "internalType": "bool",
          "name": "",
          "type": "bool"
        }
      ],
      "stateMutability": "nonpayable",
      "type": "function"
    },
    {
      "inputs": [
        {
          "internalType": "address",
          "name": "account",
          "type": "address"
        }
      ],
      "name": "balanceOf",
      "outputs": [
        {
          "internalType": "uint256",
          "name": "",
          "type": "uint256"
        }
      ],
      "stateMutability": "view",
      "type": "function"
    },
    {
      "inputs": [
        {
          "internalType": "uint256",
          "name": "amount",
          "type": "uint256"
        }
      ],
      "name": "burn",
      "outputs": [],
      "stateMutability": "nonpayable",
      "type": "function"
    },
    {
      "inputs": [],
      "name": "decimals",
      "outputs": [
        {
          "internalType": "uint8",
          "name": "",
          "type": "uint8"
        }
      ],
      "stateMutability": "view",
      "type": "function"
    },
    {
      "inputs": [
        {
          "internalType": "address",
          "name": "spender",
          "type": "address"
        },
        {
          "internalType": "uint256",
          "name": "subtractedValue",
          "type": "uint256"
        }
      ],
      "name": "decreaseAllowance",
      "outputs": [
        {
          "internalType": "bool",
          "name": "",
          "type": "bool"
        }
      ],
      "stateMutability": "nonpayable",
      "type": "function"
    },
    {
      "inputs": [
        {
          "internalType": "bytes32",
          "name": "role",
          "type": "bytes32"
        }
      ],
      "name": "getRoleAdmin",
      "outputs": [
        {
          "internalType": "bytes32",
          "name": "",
          "type": "bytes32"
        }
      ],
      "stateMutability": "view",
      "type": "function"
    },
    {
      "inputs": [
        {
          "internalType": "bytes32",
          "name": "role",
          "type": "bytes32"
        },
        {
          "internalType": "uint256",
          "name": "index",
          "type": "uint256"
        }
      ],
      "name": "getRoleMember",
      "outputs": [
        {
          "internalType": "address",
          "name": "",
          "type": "address"
        }
      ],
      "stateMutability": "view",
      "type": "function"
    },
    {
      "inputs": [
        {
          "internalType": "bytes32",
          "name": "role",
          "type": "bytes32"
        }
      ],
      "name": "getRoleMemberCount",
      "outputs": [
        {
          "internalType": "uint256",
          "name": "",
          "type": "uint256"
        }
      ],
      "stateMutability": "view",
      "type": "function"
    },
    {
      "inputs": [
        {
          "internalType": "bytes32",
          "name": "role",
          "type": "bytes32"
        },
        {
          "internalType": "address",
          "name": "account",
          "type": "address"
        }
      ],
      "name": "grantRole",
      "outputs": [],
      "stateMutability": "nonpayable",
      "type": "function"
    },
    {
      "inputs": [
        {
          "internalType": "bytes32",
          "name": "role",
          "type": "bytes32"
        },
        {
          "internalType": "address",
          "name": "account",
          "type": "address"
        }
      ],
      "name": "hasRole",
      "outputs": [
        {
          "internalType": "bool",
          "name": "",
          "type": "bool"
        }
      ],
      "stateMutability": "view",
      "type": "function"
    },
    {
      "inputs": [
        {
          "internalType": "address",
          "name": "spender",
          "type": "address"
        },
        {
          "internalType": "uint256",
          "name": "addedValue",
          "type": "uint256"
        }
      ],
      "name": "increaseAllowance",
      "outputs": [
        {
          "internalType": "bool",
          "name": "",
          "type": "bool"
        }
      ],
      "stateMutability": "nonpayable",
      "type": "function"
    },
    {
      "inputs": [
        {
          "internalType": "address",
          "name": "account",
          "type": "address"
        },
        {
          "internalType": "uint256",
          "name": "amount",
          "type": "uint256"
        }
      ],
      "name": "mintTo",
      "outputs": [],
      "stateMutability": "nonpayable",
      "type": "function"
    },
    {
      "inputs": [],
      "name": "name",
      "outputs": [
        {
          "internalType": "string",
          "name": "",
          "type": "string"
        }
      ],
      "stateMutability": "view",
      "type": "function"
    },
    {
      "inputs": [],
      "name": "pause",
      "outputs": [],
      "stateMutability": "nonpayable",
      "type": "function"
    },
    {
      "inputs": [],
      "name": "paused",
      "outputs": [
        {
          "internalType": "bool",
          "name": "",
          "type": "bool"
        }
      ],
      "stateMutability": "view",
      "type": "function"
    },
    {
      "inputs": [
        {
          "internalType": "bytes32",
          "name": "role",
          "type": "bytes32"
        },
        {
          "internalType": "address",
          "name": "account",
          "type": "address"
        }
      ],
      "name": "renounceRole",
      "outputs": [],
      "stateMutability": "nonpayable",
      "type": "function"
    },
    {
      "inputs": [
        {
          "internalType": "bytes32",
          "name": "role",
          "type": "bytes32"
        },
        {
          "internalType": "address",
          "name": "account",
          "type": "address"
        }
      ],
      "name": "revokeRole",
      "outputs": [],
      "stateMutability": "nonpayable",
      "type": "function"
    },
    {
      "inputs": [
        {
          "internalType": "bytes4",
          "name": "interfaceId",
          "type": "bytes4"
        }
      ],
      "name": "supportsInterface",
      "outputs": [
        {
          "internalType": "bool",
          "name": "",
          "type": "bool"
        }
      ],
      "stateMutability": "view",
      "type": "function"
    },
    {
      "inputs": [],
      "name": "symbol",
      "outputs": [
        {
          "internalType": "string",
          "name": "",
          "type": "string"
        }
      ],
      "stateMutability": "view",
      "type": "function"
    },
    {
      "inputs": [],
      "name": "totalSupply",
      "outputs": [
        {
          "internalType": "uint256",
          "name": "",
          "type": "uint256"
        }
      ],
      "stateMutability": "view",
      "type": "function"
    },
    {
      "inputs": [
        {
          "internalType": "address",
          "name": "recipient",
          "type": "address"
        },
        {
          "internalType": "uint256",
          "name": "amount",
          "type": "uint256"
        }
      ],
      "name": "transfer",
      "outputs": [
        {
          "internalType": "bool",
          "name": "",
          "type": "bool"
        }
      ],
      "stateMutability": "nonpayable",
      "type": "function"
    },
    {
      "inputs": [
        {
          "internalType": "address",
          "name": "sender",
          "type": "address"
        },
        {
          "internalType": "address",
          "name": "recipient",
          "type": "address"
        },
        {
          "internalType": "uint256",
          "name": "amount",
          "type": "uint256"
        }
      ],
      "name": "transferFrom",
      "outputs": [
        {
          "internalType": "bool",
          "name": "",
          "type": "bool"
        }
      ],
      "stateMutability": "nonpayable",
      "type": "function"
    },
    {
      "inputs": [],
      "name": "unpause",
      "outputs": [],
      "stateMutability": "nonpayable",
      "type": "function"
    }
  ],
  "bytecode": "0x60806040523480156200001157600080fd5b506040805180820182526009815268406276616c6f73656b60b81b6020808301918252835180850190945260048452631095905360e21b90840152815191929183918391620000639160059162000385565b5080516200007990600690602084019062000385565b50506007805460ff191690555060006200009262000193565b9050620000af60008051602062001d4b8339815191528062000197565b620000ca60008051602062001d6b8339815191528062000197565b620000f460008051602062001d8b83398151915260008051602062001d4b83398151915262000197565b6200011e60008051602062001dab83398151915260008051602062001d6b83398151915262000197565b6200013960008051602062001d4b83398151915282620001e3565b6200015460008051602062001d6b83398151915282620001e3565b6200016f60008051602062001dab83398151915282620001e3565b6200018a60008051602062001d8b83398151915282620001e3565b50505062000468565b3390565b80620001a38362000226565b60405184907fbd79b86ffe0ab8e8776151514217cd7cacd52c909f66475c3af44e129f0b00ff90600090a460009182526020829052604090912060010155565b620001fa82826200023b60201b620008981760201c565b600082815260016020908152604090912062000221918390620008a66200024b821b17901c565b505050565b60009081526020819052604090206001015490565b6200024782826200026b565b5050565b600062000262836001600160a01b038416620002f5565b90505b92915050565b62000277828262000344565b62000247576000828152602081815260408083206001600160a01b03851684529091529020805460ff19166001179055620002b162000193565b6001600160a01b0316816001600160a01b0316837f2f8788117e7eff1d82e926ec794901d17c78024a50270940304540a733656f0d60405160405180910390a45050565b60006200030383836200036d565b6200033b5750815460018181018455600084815260208082209093018490558454848252828601909352604090209190915562000265565b50600062000265565b6000918252602082815260408084206001600160a01b0393909316845291905290205460ff1690565b60009081526001919091016020526040902054151590565b82805462000393906200042b565b90600052602060002090601f016020900481019282620003b7576000855562000402565b82601f10620003d257805160ff191683800117855562000402565b8280016001018555821562000402579182015b8281111562000402578251825591602001919060010190620003e5565b506200041092915062000414565b5090565b5b8082111562000410576000815560010162000415565b6002810460018216806200044057607f821691505b602082108114156200046257634e487b7160e01b600052602260045260246000fd5b50919050565b6118d380620004786000396000f3fe608060405234801561001057600080fd5b506004361061015f5760003560e01c806301ffc9a71461016457806306fdde031461018d578063095ea7b3146101a25780631339324b146101b557806318160ddd146101ca57806323b872dd146101d2578063248a9ca3146101e557806325a00473146101f85780632f2ff15d14610200578063313ce5671461021557806336568abe1461022a578063395093511461023d5780633f4ba83a1461025057806342966c6814610258578063449a52f81461026b5780635c975abb1461027e57806370a08231146102865780638456cb59146102995780639010d07c146102a157806391d14854146102c157806395d89b41146102d4578063a217fddf146102dc578063a457c2d7146102e4578063a9059cbb146102f7578063ca15c8731461030a578063d53913931461031d578063d547741f14610325578063dd62ed3e14610338578063e63ab1e91461034b575b600080fd5b61017761017236600461122e565b610353565b6040516101849190611283565b60405180910390f35b610195610380565b6040516101849190611297565b6101776101b036600461118a565b610412565b6101bd610430565b604051610184919061128e565b6101bd610454565b6101776101e036600461114f565b61045a565b6101bd6101f33660046111d3565b6104fa565b6101bd61050f565b61021361020e3660046111eb565b610533565b005b61021d61055a565b604051610184919061178f565b6102136102383660046111eb565b61055f565b61017761024b36600461118a565b610581565b6102136105d0565b6102136102663660046111d3565b610610565b61021361027936600461118a565b610624565b6101776106db565b6101bd610294366004611103565b6106e4565b6102136106ff565b6102b46102af36600461120d565b61073d565b6040516101849190611256565b6101776102cf3660046111eb565b61075c565b610195610785565b6101bd610794565b6101776102f236600461118a565b610799565b61017761030536600461118a565b610814565b6101bd6103183660046111d3565b610828565b6101bd61083f565b6102136103333660046111eb565b610851565b6101bd61034636600461111d565b61085b565b6101bd610886565b60006001600160e01b03198216635a05180f60e01b14806103785750610378826108bb565b90505b919050565b60606005805461038f906117cc565b80601f01602080910402602001604051908101604052809291908181526020018280546103bb906117cc565b80156104085780601f106103dd57610100808354040283529160200191610408565b820191906000526020600020905b8154815290600101906020018083116103eb57829003601f168201915b5050505050905090565b600061042661041f6108e0565b84846108e4565b5060015b92915050565b7f70480ee89cb38eff00b7d23da25713d52ce19c6ed428691d22c58b2f615e3d6781565b60045490565b6000610467848484610998565b6001600160a01b0384166000908152600360205260408120816104886108e0565b6001600160a01b03166001600160a01b03168152602001908152602001600020549050828110156104d45760405162461bcd60e51b81526004016104cb90611568565b60405180910390fd5b6104ef856104e06108e0565b6104ea86856117b5565b6108e4565b506001949350505050565b60009081526020819052604090206001015490565b7fe0e65c783ac33ff1c5ccf4399c9185066773921d6f8d050bf80781603021f09781565b61053d8282610aae565b600082815260016020526040902061055590826108a6565b505050565b601290565b6105698282610ade565b60008281526001602052604090206105559082610b20565b600061042661058e6108e0565b84846003600061059c6108e0565b6001600160a01b03908116825260208083019390935260409182016000908120918b16815292529020546104ea919061179d565b6105ea60008051602061181e8339815191526102cf6108e0565b6106065760405162461bcd60e51b81526004016104cb906113da565b61060e610b35565b565b61062161061b6108e0565b82610ba3565b50565b61063e60008051602061183e8339815191526102cf6108e0565b61065a5760405162461bcd60e51b81526004016104cb9061153a565b6106643082610c77565b60405163a9059cbb60e01b8152309063a9059cbb90610689908590859060040161126a565b602060405180830381600087803b1580156106a357600080fd5b505af11580156106b7573d6000803e3d6000fd5b505050506040513d601f19601f8201168201806040525081019061055591906111b3565b60075460ff1690565b6001600160a01b031660009081526002602052604090205490565b61071960008051602061181e8339815191526102cf6108e0565b6107355760405162461bcd60e51b81526004016104cb906113da565b61060e610d25565b60008281526001602052604081206107559083610d80565b9392505050565b6000918252602082815260408084206001600160a01b0393909316845291905290205460ff1690565b60606006805461038f906117cc565b600081565b600080600360006107a86108e0565b6001600160a01b03908116825260208083019390935260409182016000908120918816815292529020549050828110156107f45760405162461bcd60e51b81526004016104cb9061167a565b61080a6107ff6108e0565b856104ea86856117b5565b5060019392505050565b60006104266108216108e0565b8484610998565b600081815260016020526040812061037890610d8c565b60008051602061183e83398151915281565b6105698282610d97565b6001600160a01b03918216600090815260036020908152604080832093909416825291909152205490565b60008051602061181e83398151915281565b6108a28282610dbf565b5050565b6000610755836001600160a01b038416610e44565b60006001600160e01b03198216637965db0b60e01b1480610378575061037882610e8e565b3390565b6001600160a01b03831661090a5760405162461bcd60e51b81526004016104cb90611636565b6001600160a01b0382166109305760405162461bcd60e51b81526004016104cb9061144a565b6001600160a01b0380841660008181526003602090815260408083209487168084529490915290819020849055517f8c5be1e5ebec7d5bd14f71427d1e84f3dd0314c0f7b2291e5b200ac8c7c3b9259061098b90859061128e565b60405180910390a3505050565b6001600160a01b0383166109be5760405162461bcd60e51b81526004016104cb906115f1565b6001600160a01b0382166109e45760405162461bcd60e51b81526004016104cb9061132c565b6109ef838383610ea7565b6001600160a01b03831660009081526002602052604090205481811015610a285760405162461bcd60e51b81526004016104cb9061148c565b610a3282826117b5565b6001600160a01b038086166000908152600260205260408082209390935590851681529081208054849290610a6890849061179d565b92505081905550826001600160a01b0316846001600160a01b031660008051602061185e83398151915284604051610aa0919061128e565b60405180910390a350505050565b610ac2610aba836104fa565b6102cf6108e0565b6108985760405162461bcd60e51b81526004016104cb9061136f565b610ae66108e0565b6001600160a01b0316816001600160a01b031614610b165760405162461bcd60e51b81526004016104cb906116bf565b6108a28282610ed7565b6000610755836001600160a01b038416610f5a565b610b3d6106db565b610b595760405162461bcd60e51b81526004016104cb906113ac565b6007805460ff191690557f5db9ee0a495bf2e6ff9c91a7834c1ba4fdd244a5e8aa4e537bd38aeae4b073aa610b8c6108e0565b604051610b999190611256565b60405180910390a1565b6001600160a01b038216610bc95760405162461bcd60e51b81526004016104cb906115b0565b610bd582600083610ea7565b6001600160a01b03821660009081526002602052604090205481811015610c0e5760405162461bcd60e51b81526004016104cb90611408565b610c1882826117b5565b6001600160a01b03841660009081526002602052604081209190915560048054849290610c469084906117b5565b90915550506040516000906001600160a01b0385169060008051602061185e8339815191529061098b90869061128e565b6001600160a01b038216610c9d5760405162461bcd60e51b81526004016104cb9061170e565b610ca960008383610ea7565b8060046000828254610cbb919061179d565b90915550506001600160a01b03821660009081526002602052604081208054839290610ce890849061179d565b90915550506040516001600160a01b0383169060009060008051602061185e83398151915290610d1990859061128e565b60405180910390a35050565b610d2d6106db565b15610d4a5760405162461bcd60e51b81526004016104cb90611510565b6007805460ff191660011790557f62e78cea01bee320cd4e420270b5ea74000d11b0c9f74754ebdbfc544b05a258610b8c6108e0565b60006107558383611077565b6000610378826110d0565b610da3610aba836104fa565b610b165760405162461bcd60e51b81526004016104cb906114d2565b610dc9828261075c565b6108a2576000828152602081815260408083206001600160a01b03851684529091529020805460ff19166001179055610e006108e0565b6001600160a01b0316816001600160a01b0316837f2f8788117e7eff1d82e926ec794901d17c78024a50270940304540a733656f0d60405160405180910390a45050565b6000610e5083836110d4565b610e865750815460018181018455600084815260208082209093018490558454848252828601909352604090209190915561042a565b50600061042a565b6001600160e01b031981166301ffc9a760e01b14919050565b610eb2838383610555565b610eba6106db565b156105555760405162461bcd60e51b81526004016104cb90611745565b610ee1828261075c565b156108a2576000828152602081815260408083206001600160a01b03851684529091529020805460ff19169055610f166108e0565b6001600160a01b0316816001600160a01b0316837ff6391f5c32d9c69d2a47ea670b442974b53935d1edc7fd64eb21e047a839171b60405160405180910390a45050565b6000818152600183016020526040812054801561106d576000610f7e6001836117b5565b8554909150600090610f92906001906117b5565b90506000866000018281548110610fb957634e487b7160e01b600052603260045260246000fd5b9060005260206000200154905080876000018481548110610fea57634e487b7160e01b600052603260045260246000fd5b60009182526020909120015561100183600161179d565b6000828152600189016020526040902055865487908061103157634e487b7160e01b600052603160045260246000fd5b6001900381819060005260206000200160009055905586600101600087815260200190815260200160002060009055600194505050505061042a565b600091505061042a565b8154600090821061109a5760405162461bcd60e51b81526004016104cb906112ea565b8260000182815481106110bd57634e487b7160e01b600052603260045260246000fd5b9060005260206000200154905092915050565b5490565b60009081526001919091016020526040902054151590565b80356001600160a01b038116811461037b57600080fd5b600060208284031215611114578081fd5b610755826110ec565b6000806040838503121561112f578081fd5b611138836110ec565b9150611146602084016110ec565b90509250929050565b600080600060608486031215611163578081fd5b61116c846110ec565b925061117a602085016110ec565b9150604084013590509250925092565b6000806040838503121561119c578182fd5b6111a5836110ec565b946020939093013593505050565b6000602082840312156111c4578081fd5b81518015158114610755578182fd5b6000602082840312156111e4578081fd5b5035919050565b600080604083850312156111fd578182fd5b82359150611146602084016110ec565b6000806040838503121561121f578182fd5b50508035926020909101359150565b60006020828403121561123f578081fd5b81356001600160e01b031981168114610755578182fd5b6001600160a01b0391909116815260200190565b6001600160a01b03929092168252602082015260400190565b901515815260200190565b90815260200190565b6000602080835283518082850152825b818110156112c3578581018301518582016040015282016112a7565b818111156112d45783604083870101525b50601f01601f1916929092016040019392505050565b60208082526022908201527f456e756d657261626c655365743a20696e646578206f7574206f6620626f756e604082015261647360f01b606082015260800190565b60208082526023908201527f45524332303a207472616e7366657220746f20746865207a65726f206164647260408201526265737360e81b606082015260800190565b6020808252602f9082015260008051602061187e83398151915260408201526e0818591b5a5b881d1bc819dc985b9d608a1b606082015260800190565b60208082526014908201527314185d5cd8589b194e881b9bdd081c185d5cd95960621b604082015260600190565b6020808252601490820152737265717569726573205041555345525f524f4c4560601b604082015260600190565b60208082526022908201527f45524332303a206275726e20616d6f756e7420657863656564732062616c616e604082015261636560f01b606082015260800190565b60208082526022908201527f45524332303a20617070726f766520746f20746865207a65726f206164647265604082015261737360f01b606082015260800190565b60208082526026908201527f45524332303a207472616e7366657220616d6f756e7420657863656564732062604082015265616c616e636560d01b606082015260800190565b602080825260309082015260008051602061187e83398151915260408201526f2061646d696e20746f207265766f6b6560801b606082015260800190565b60208082526010908201526f14185d5cd8589b194e881c185d5cd95960821b604082015260600190565b6020808252601490820152737265717569726573204d494e5445525f524f4c4560601b604082015260600190565b60208082526028908201527f45524332303a207472616e7366657220616d6f756e74206578636565647320616040820152676c6c6f77616e636560c01b606082015260800190565b60208082526021908201527f45524332303a206275726e2066726f6d20746865207a65726f206164647265736040820152607360f81b606082015260800190565b60208082526025908201527f45524332303a207472616e736665722066726f6d20746865207a65726f206164604082015264647265737360d81b606082015260800190565b60208082526024908201527f45524332303a20617070726f76652066726f6d20746865207a65726f206164646040820152637265737360e01b606082015260800190565b60208082526025908201527f45524332303a2064656372656173656420616c6c6f77616e63652062656c6f77604082015264207a65726f60d81b606082015260800190565b6020808252602f908201527f416363657373436f6e74726f6c3a2063616e206f6e6c792072656e6f756e636560408201526e103937b632b9903337b91039b2b63360891b606082015260800190565b6020808252601f908201527f45524332303a206d696e7420746f20746865207a65726f206164647265737300604082015260600190565b6020808252602a908201527f45524332305061757361626c653a20746f6b656e207472616e736665722077686040820152691a5b19481c185d5cd95960b21b606082015260800190565b60ff91909116815260200190565b600082198211156117b0576117b0611807565b500190565b6000828210156117c7576117c7611807565b500390565b6002810460018216806117e057607f821691505b6020821081141561180157634e487b7160e01b600052602260045260246000fd5b50919050565b634e487b7160e01b600052601160045260246000fdfe65d7a28e3265b37a6474929f336521b332c1681b933f6cb9f3376673440d862a9f2df0fed2c77648de5860a4cc508cd0818c85b8b8a1ab4ceeef8d981c8956a6ddf252ad1be2c89b69c2b068fc378daa952ba7f163c4a11628f55a4df523b3ef416363657373436f6e74726f6c3a2073656e646572206d75737420626520616ea2646970667358221220f944d91aad68205158be530e62e1364181aa825b195b991d2841815dbbfd65fb64736f6c63430008010033e0e65c783ac33ff1c5ccf4399c9185066773921d6f8d050bf80781603021f09770480ee89cb38eff00b7d23da25713d52ce19c6ed428691d22c58b2f615e3d6765d7a28e3265b37a6474929f336521b332c1681b933f6cb9f3376673440d862a9f2df0fed2c77648de5860a4cc508cd0818c85b8b8a1ab4ceeef8d981c8956a6",
  "immutableReferences": {},
  "source": "// SPDX-License-Identifier: MIT\npragma solidity ^0.8.0;\n\nimport \"./CoreERC20.sol\";\n\n// @bvalosek ERC-20 Token\ncontract BVAL20 is CoreERC20 {\n  constructor() CoreERC20(\"@bvalosek\", \"BVAL\") { }\n}",
  "sourcePath": "/Users/bvalosek/projects/bval-nft/packages/solidity-contracts/contracts/BVAL20.sol",
  "compiler": {
    "name": "solc",
    "version": "0.8.1+commit.df193b15.Emscripten.clang"
  },
  "schemaVersion": "3.3.3",
  "updatedAt": "2021-03-27T17:08:39.986Z",
  "devdoc": {
    "kind": "dev",
    "methods": {
      "allowance(address,address)": {
        "details": "See {IERC20-allowance}."
      },
      "approve(address,uint256)": {
        "details": "See {IERC20-approve}. Requirements: - `spender` cannot be the zero address."
      },
      "balanceOf(address)": {
        "details": "See {IERC20-balanceOf}."
      },
      "decimals()": {
        "details": "Returns the number of decimals used to get its user representation. For example, if `decimals` equals `2`, a balance of `505` tokens should be displayed to a user as `5,05` (`505 / 10 ** 2`). Tokens usually opt for a value of 18, imitating the relationship between Ether and Wei. This is the value {ERC20} uses, unless this function is overloaded; NOTE: This information is only used for _display_ purposes: it in no way affects any of the arithmetic of the contract, including {IERC20-balanceOf} and {IERC20-transfer}."
      },
      "decreaseAllowance(address,uint256)": {
        "details": "Atomically decreases the allowance granted to `spender` by the caller. This is an alternative to {approve} that can be used as a mitigation for problems described in {IERC20-approve}. Emits an {Approval} event indicating the updated allowance. Requirements: - `spender` cannot be the zero address. - `spender` must have allowance for the caller of at least `subtractedValue`."
      },
      "getRoleAdmin(bytes32)": {
        "details": "Returns the admin role that controls `role`. See {grantRole} and {revokeRole}. To change a role's admin, use {_setRoleAdmin}."
      },
      "getRoleMember(bytes32,uint256)": {
        "details": "Returns one of the accounts that have `role`. `index` must be a value between 0 and {getRoleMemberCount}, non-inclusive. Role bearers are not sorted in any particular way, and their ordering may change at any point. WARNING: When using {getRoleMember} and {getRoleMemberCount}, make sure you perform all queries on the same block. See the following https://forum.openzeppelin.com/t/iterating-over-elements-on-enumerableset-in-openzeppelin-contracts/2296[forum post] for more information."
      },
      "getRoleMemberCount(bytes32)": {
        "details": "Returns the number of accounts that have `role`. Can be used together with {getRoleMember} to enumerate all bearers of a role."
      },
      "grantRole(bytes32,address)": {
        "details": "Overload {grantRole} to track enumerable memberships"
      },
      "hasRole(bytes32,address)": {
        "details": "Returns `true` if `account` has been granted `role`."
      },
      "increaseAllowance(address,uint256)": {
        "details": "Atomically increases the allowance granted to `spender` by the caller. This is an alternative to {approve} that can be used as a mitigation for problems described in {IERC20-approve}. Emits an {Approval} event indicating the updated allowance. Requirements: - `spender` cannot be the zero address."
      },
      "name()": {
        "details": "Returns the name of the token."
      },
      "paused()": {
        "details": "Returns true if the contract is paused, and false otherwise."
      },
      "renounceRole(bytes32,address)": {
        "details": "Overload {renounceRole} to track enumerable memberships"
      },
      "revokeRole(bytes32,address)": {
        "details": "Overload {revokeRole} to track enumerable memberships"
      },
      "supportsInterface(bytes4)": {
        "details": "See {IERC165-supportsInterface}."
      },
      "symbol()": {
        "details": "Returns the symbol of the token, usually a shorter version of the name."
      },
      "totalSupply()": {
        "details": "See {IERC20-totalSupply}."
      },
      "transfer(address,uint256)": {
        "details": "See {IERC20-transfer}. Requirements: - `recipient` cannot be the zero address. - the caller must have a balance of at least `amount`."
      },
      "transferFrom(address,address,uint256)": {
        "details": "See {IERC20-transferFrom}. Emits an {Approval} event indicating the updated allowance. This is not required by the EIP. See the note at the beginning of {ERC20}. Requirements: - `sender` and `recipient` cannot be the zero address. - `sender` must have a balance of at least `amount`. - the caller must have allowance for ``sender``'s tokens of at least `amount`."
      }
    },
    "version": 1
  },
  "userdoc": {
    "kind": "user",
    "methods": {},
    "version": 1
  }
}