{
  "contractName": "ERC20BalanceStrategy",
  "abi": [
    {
      "inputs": [
        {
          "internalType": "contract IERC20",
          "name": "_token",
          "type": "address"
        }
      ],
      "stateMutability": "nonpayable",
      "type": "constructor"
    },
    {
      "inputs": [],
      "name": "token",
      "outputs": [
        {
          "internalType": "contract IERC20",
          "name": "",
          "type": "address"
        }
      ],
      "stateMutability": "view",
      "type": "function"
    },
    {
      "inputs": [],
      "name": "getName",
      "outputs": [
        {
          "internalType": "string",
          "name": "",
          "type": "string"
        }
      ],
      "stateMutability": "pure",
      "type": "function"
    },
    {
      "inputs": [
        {
          "internalType": "address",
          "name": "voter",
          "type": "address"
        }
      ],
      "name": "getVotePower",
      "outputs": [
        {
          "internalType": "uint256",
          "name": "",
          "type": "uint256"
        }
      ],
      "stateMutability": "view",
      "type": "function"
    }
  ],
  "bytecode": "0x608060405234801561001057600080fd5b506040516102d93803806102d983398101604081905261002f91610054565b600080546001600160a01b0319166001600160a01b0392909216919091179055610082565b600060208284031215610065578081fd5b81516001600160a01b038116811461007b578182fd5b9392505050565b610248806100916000396000f3fe608060405234801561001057600080fd5b50600436106100415760003560e01c806317d7de7c14610046578063bb9c092014610064578063fc0c546a14610084575b600080fd5b61004e610099565b60405161005b91906101b6565b60405180910390f35b61007761007236600461015c565b6100c6565b60405161005b9190610209565b61008c61014d565b60405161005b91906101a2565b604080518082019091526013815272455243323020546f6b656e2042616c616e636560681b602082015290565b600080546040516370a0823160e01b81526001600160a01b03909116906370a08231906100f79085906004016101a2565b60206040518083038186803b15801561010f57600080fd5b505afa158015610123573d6000803e3d6000fd5b505050506040513d601f19601f82011682018060405250810190610147919061018a565b92915050565b6000546001600160a01b031681565b60006020828403121561016d578081fd5b81356001600160a01b0381168114610183578182fd5b9392505050565b60006020828403121561019b578081fd5b5051919050565b6001600160a01b0391909116815260200190565b6000602080835283518082850152825b818110156101e2578581018301518582016040015282016101c6565b818111156101f35783604083870101525b50601f01601f1916929092016040019392505050565b9081526020019056fea26469706673582212203469cdbda2ffc97490f115eb3c37c3aef242a8f108e765a37fa80266ab087c8d64736f6c63430008010033",
  "immutableReferences": {},
  "source": "// SPDX-License-Identifier: MIT\npragma solidity ^0.8.0;\n\nimport \"@openzeppelin/contracts/token/ERC20/ERC20.sol\";\nimport \"./VotePower.sol\";\nimport \"./NFTTokenFaucetV2.sol\";\n\n// vote power from erc20 balance\ncontract ERC20BalanceStrategy is IVotePowerStrategy {\n  IERC20 public token;\n\n  constructor(IERC20 _token) {\n    token = _token;\n  }\n\n  function getName() override external pure returns (string memory) {\n    return \"ERC20 Token Balance\";\n  }\n\n  function getVotePower(address voter) override external view returns (uint256) {\n    return token.balanceOf(voter);\n  }\n}\n\n// vote power from claimable tokens from nft token faucet\ncontract NFTTokenFaucetStrategy is IVotePowerStrategy {\n  NFTTokenFaucetV2 public faucet;\n\n  constructor(NFTTokenFaucetV2 _faucet) {\n    faucet = _faucet;\n  }\n\n  function getName() override external pure returns (string memory) {\n    return \"NFTTokenFaucetV2 Claimable\";\n  }\n\n  function getVotePower(address voter) override external view returns (uint256) {\n    uint256 power = 0;\n    uint256 count = faucet.tokenCount();\n\n    for (uint i = 0; i < count; i++) {\n      ManagedTokenInfo memory info = faucet.tokenInfo(faucet.tokenIdAt(i));\n      power += info.owner == voter ? info.claimable : 0;\n    }\n\n    return power;\n  }\n}\n\n// uniswap / quickswap pair\ninterface IPair {\n  function totalSupply() external view returns (uint);\n  function balanceOf(address owner) external view returns (uint);\n  function getReserves() external view returns (uint112 reserve0, uint112 reserve1, uint32 blockTimestampLast);\n  function token0() external view returns (address);\n  function token1() external view returns (address);\n}\n\n// vote power from pooled tokens in a uniswap/quickswap pair\ncontract UniswapPoolStrategy is IVotePowerStrategy {\n  IPair public pair;\n  bool private _useToken1;\n\n  constructor(IPair _pair, IERC20 token) {\n    pair = _pair;\n    if (pair.token0() == address(token)) {\n      _useToken1 = false;\n    } else if (pair.token1() == address(token)) {\n      _useToken1 = true;\n    } else {\n      revert(\"token is not part pair\");\n    }\n  }\n\n  function getName() override external pure returns (string memory) {\n    return \"Uniswap Pool\";\n  }\n\n  function getVotePower(address voter) override external view returns (uint256) {\n    (uint112 reserve0, uint112 reserve1, ) = pair.getReserves();\n    uint reserve = _useToken1 ? reserve1 : reserve0;\n    uint totalSupply = pair.totalSupply();\n    uint lpBalance = pair.balanceOf(voter);\n    return lpBalance * reserve / totalSupply;\n  }\n}\n",
  "sourcePath": "/Users/bvalosek/projects/bval-nft/packages/solidity-contracts/contracts/VibesStrategies.sol",
  "compiler": {
    "name": "solc",
    "version": "0.8.1+commit.df193b15.Emscripten.clang"
  },
  "schemaVersion": "3.3.3",
  "updatedAt": "2021-06-28T01:18:28.850Z",
  "devdoc": {
    "kind": "dev",
    "methods": {},
    "version": 1
  },
  "userdoc": {
    "kind": "user",
    "methods": {},
    "version": 1
  }
}