{
  "contractName": "NFTTokenFaucetStrategy",
  "abi": [
    {
      "inputs": [
        {
          "internalType": "contract NFTTokenFaucetV2",
          "name": "_faucet",
          "type": "address"
        }
      ],
      "stateMutability": "nonpayable",
      "type": "constructor"
    },
    {
      "inputs": [],
      "name": "faucet",
      "outputs": [
        {
          "internalType": "contract NFTTokenFaucetV2",
          "name": "",
          "type": "address"
        }
      ],
      "stateMutability": "view",
      "type": "function"
    },
    {
      "inputs": [],
      "name": "getName",
      "outputs": [
        {
          "internalType": "string",
          "name": "",
          "type": "string"
        }
      ],
      "stateMutability": "pure",
      "type": "function"
    },
    {
      "inputs": [
        {
          "internalType": "address",
          "name": "voter",
          "type": "address"
        }
      ],
      "name": "getVotePower",
      "outputs": [
        {
          "internalType": "uint256",
          "name": "",
          "type": "uint256"
        }
      ],
      "stateMutability": "view",
      "type": "function"
    }
  ],
  "bytecode": "0x608060405234801561001057600080fd5b5060405161054b38038061054b83398101604081905261002f91610054565b600080546001600160a01b0319166001600160a01b0392909216919091179055610082565b600060208284031215610065578081fd5b81516001600160a01b038116811461007b578182fd5b9392505050565b6104ba806100916000396000f3fe608060405234801561001057600080fd5b50600436106100415760003560e01c806317d7de7c14610046578063bb9c092014610064578063de5f72fd14610084575b600080fd5b61004e610099565b60405161005b91906103c7565b60405180910390f35b6100776100723660046102d3565b6100cd565b60405161005b919061041a565b61008c6102a9565b60405161005b91906103b3565b60408051808201909152601a8152794e4654546f6b656e466175636574563220436c61696d61626c6560301b602082015290565b6000805460408051634f8c0daf60e11b81529051839283926001600160a01b0390911691639f181b5e91600480820192602092909190829003018186803b15801561011757600080fd5b505afa15801561012b573d6000803e3d6000fd5b505050506040513d601f19601f8201168201806040525081019061014f919061039b565b905060005b8181101561029e5760008054604051636f3b98ff60e11b81526001600160a01b039091169063cc33c87590829063de7731fe9061019590879060040161041a565b60206040518083038186803b1580156101ad57600080fd5b505afa1580156101c1573d6000803e3d6000fd5b505050506040513d601f19601f820116820180604052508101906101e5919061039b565b6040518263ffffffff1660e01b8152600401610201919061041a565b6101006040518083038186803b15801561021a57600080fd5b505afa15801561022e573d6000803e3d6000fd5b505050506040513d601f19601f8201168201806040525081019061025291906102f6565b9050856001600160a01b031681602001516001600160a01b03161461027857600061027e565b8060a001515b6102889085610423565b93505080806102969061043b565b915050610154565b50909150505b919050565b6000546001600160a01b031681565b80516102a48161046c565b805180151581146102a457600080fd5b6000602082840312156102e4578081fd5b81356102ef8161046c565b9392505050565b6000610100808385031215610309578182fd5b604051908101906001600160401b038211818310171561033757634e487b7160e01b83526041600452602483fd5b816040528351815261034b602085016102b8565b602082015260408401516040820152606084015160608201526080840151608082015260a084015160a082015260c084015160c082015261038e60e085016102c3565b60e0820152949350505050565b6000602082840312156103ac578081fd5b5051919050565b6001600160a01b0391909116815260200190565b6000602080835283518082850152825b818110156103f3578581018301518582016040015282016103d7565b818111156104045783604083870101525b50601f01601f1916929092016040019392505050565b90815260200190565b6000821982111561043657610436610456565b500190565b600060001982141561044f5761044f610456565b5060010190565b634e487b7160e01b600052601160045260246000fd5b6001600160a01b038116811461048157600080fd5b5056fea2646970667358221220e0b9206d40f7e6844678687f2330d1c42fa00ce20dba653c68f0b35374f62d8b64736f6c63430008010033",
  "immutableReferences": {},
  "source": "// SPDX-License-Identifier: MIT\npragma solidity ^0.8.0;\n\nimport \"@openzeppelin/contracts/token/ERC20/ERC20.sol\";\nimport \"./VotePower.sol\";\nimport \"./NFTTokenFaucetV2.sol\";\n\n// vote power from erc20 balance\ncontract ERC20BalanceStrategy is IVotePowerStrategy {\n  IERC20 public token;\n\n  constructor(IERC20 _token) {\n    token = _token;\n  }\n\n  function getName() override external pure returns (string memory) {\n    return \"ERC20 Token Balance\";\n  }\n\n  function getVotePower(address voter) override external view returns (uint256) {\n    return token.balanceOf(voter);\n  }\n}\n\n// vote power from claimable tokens from nft token faucet\ncontract NFTTokenFaucetStrategy is IVotePowerStrategy {\n  NFTTokenFaucetV2 public faucet;\n\n  constructor(NFTTokenFaucetV2 _faucet) {\n    faucet = _faucet;\n  }\n\n  function getName() override external pure returns (string memory) {\n    return \"NFTTokenFaucetV2 Claimable\";\n  }\n\n  function getVotePower(address voter) override external view returns (uint256) {\n    uint256 power = 0;\n    uint256 count = faucet.tokenCount();\n\n    for (uint i = 0; i < count; i++) {\n      ManagedTokenInfo memory info = faucet.tokenInfo(faucet.tokenIdAt(i));\n      power += info.owner == voter ? info.claimable : 0;\n    }\n\n    return power;\n  }\n}\n\n// uniswap / quickswap pair\ninterface IPair {\n  function totalSupply() external view returns (uint);\n  function balanceOf(address owner) external view returns (uint);\n  function getReserves() external view returns (uint112 reserve0, uint112 reserve1, uint32 blockTimestampLast);\n  function token0() external view returns (address);\n  function token1() external view returns (address);\n}\n\n// vote power from pooled tokens in a uniswap/quickswap pair\ncontract UniswapPoolStrategy is IVotePowerStrategy {\n  IPair public pair;\n  bool private _useToken1;\n\n  constructor(IPair _pair, IERC20 token) {\n    pair = _pair;\n    if (pair.token0() == address(token)) {\n      _useToken1 = false;\n    } else if (pair.token1() == address(token)) {\n      _useToken1 = true;\n    } else {\n      revert(\"token is not part pair\");\n    }\n  }\n\n  function getName() override external pure returns (string memory) {\n    return \"Uniswap Pool\";\n  }\n\n  function getVotePower(address voter) override external view returns (uint256) {\n    (uint112 reserve0, uint112 reserve1, ) = pair.getReserves();\n    uint reserve = _useToken1 ? reserve1 : reserve0;\n    uint totalSupply = pair.totalSupply();\n    uint lpBalance = pair.balanceOf(voter);\n    return lpBalance * reserve / totalSupply;\n  }\n}\n",
  "sourcePath": "/Users/bvalosek/projects/bval-nft/packages/solidity-contracts/contracts/VibesStrategies.sol",
  "compiler": {
    "name": "solc",
    "version": "0.8.1+commit.df193b15.Emscripten.clang"
  },
  "schemaVersion": "3.3.3",
  "updatedAt": "2021-06-28T01:18:28.855Z",
  "devdoc": {
    "kind": "dev",
    "methods": {},
    "version": 1
  },
  "userdoc": {
    "kind": "user",
    "methods": {},
    "version": 1
  }
}