{
  "contractName": "TokenLockManager",
  "abi": [
    {
      "inputs": [
        {
          "internalType": "contract IERC721",
          "name": "nft",
          "type": "address"
        }
      ],
      "stateMutability": "nonpayable",
      "type": "constructor"
    },
    {
      "inputs": [
        {
          "internalType": "uint256",
          "name": "tokenId",
          "type": "uint256"
        }
      ],
      "name": "tokenUnlocksAt",
      "outputs": [
        {
          "internalType": "uint256",
          "name": "",
          "type": "uint256"
        }
      ],
      "stateMutability": "view",
      "type": "function"
    },
    {
      "inputs": [
        {
          "internalType": "uint256",
          "name": "tokenId",
          "type": "uint256"
        }
      ],
      "name": "isTokenLocked",
      "outputs": [
        {
          "internalType": "bool",
          "name": "",
          "type": "bool"
        }
      ],
      "stateMutability": "view",
      "type": "function"
    },
    {
      "inputs": [
        {
          "internalType": "uint256",
          "name": "tokenId",
          "type": "uint256"
        }
      ],
      "name": "lockToken",
      "outputs": [
        {
          "internalType": "uint256",
          "name": "",
          "type": "uint256"
        }
      ],
      "stateMutability": "nonpayable",
      "type": "function"
    },
    {
      "inputs": [
        {
          "internalType": "uint256",
          "name": "tokenId",
          "type": "uint256"
        }
      ],
      "name": "unlockToken",
      "outputs": [
        {
          "internalType": "uint256",
          "name": "",
          "type": "uint256"
        }
      ],
      "stateMutability": "nonpayable",
      "type": "function"
    },
    {
      "inputs": [
        {
          "internalType": "bytes4",
          "name": "interfaceId",
          "type": "bytes4"
        }
      ],
      "name": "supportsInterface",
      "outputs": [
        {
          "internalType": "bool",
          "name": "",
          "type": "bool"
        }
      ],
      "stateMutability": "view",
      "type": "function"
    }
  ],
  "bytecode": "0x608060405234801561001057600080fd5b506040516105a83803806105a883398101604081905261002f91610054565b600180546001600160a01b0319166001600160a01b0392909216919091179055610082565b600060208284031215610065578081fd5b81516001600160a01b038116811461007b578182fd5b9392505050565b610517806100916000396000f3fe608060405234801561001057600080fd5b50600436106100575760003560e01c806301ffc9a71461005c578063276a28a31461008557806380f2036314610098578063dd2e0ac0146100b8578063ed660954146100cb575b600080fd5b61006f61006a366004610422565b6100de565b60405161007c919061047c565b60405180910390f35b61006f61009336600461044a565b610109565b6100ab6100a636600461044a565b61011e565b60405161007c91906104b4565b6100ab6100c636600461044a565b610177565b6100ab6100d936600461044a565b6101ea565b60006001600160e01b031982166325f40a1560e21b14806101035750610103826101fc565b92915050565b60009081526020819052604090205442111590565b600061012a8233610215565b61014f5760405162461bcd60e51b815260040161014690610487565b60405180910390fd5b600061015e4262278d006104bd565b6000848152602081905260409020819055915050919050565b60006101838233610215565b61019f5760405162461bcd60e51b815260040161014690610487565b60006101ae42620151806104bd565b6000848152602081905260408120549192508282116101cd57816101cf565b825b60008681526020819052604090208190559350505050919050565b60009081526020819052604090205490565b6001600160e01b031981166301ffc9a760e01b14919050565b6001546040516331a9108f60e11b815260009182916001600160a01b0390911690636352211e9061024a9087906004016104b4565b60206040518083038186803b15801561026257600080fd5b505afa158015610276573d6000803e3d6000fd5b505050506040513d601f19601f8201168201806040525081019061029a91906103d4565b9050826001600160a01b0316816001600160a01b03161480610344575060015460405163020604bf60e21b81526001600160a01b0380861692169063081812fc906102e99088906004016104b4565b60206040518083038186803b15801561030157600080fd5b505afa158015610315573d6000803e3d6000fd5b505050506040513d601f19601f8201168201806040525081019061033991906103d4565b6001600160a01b0316145b806103cc575060015460405163e985e9c560e01b81526001600160a01b039091169063e985e9c59061037c9084908790600401610462565b60206040518083038186803b15801561039457600080fd5b505afa1580156103a8573d6000803e3d6000fd5b505050506040513d601f19601f820116820180604052508101906103cc9190610402565b949350505050565b6000602082840312156103e5578081fd5b81516001600160a01b03811681146103fb578182fd5b9392505050565b600060208284031215610413578081fd5b815180151581146103fb578182fd5b600060208284031215610433578081fd5b81356001600160e01b0319811681146103fb578182fd5b60006020828403121561045b578081fd5b5035919050565b6001600160a01b0392831681529116602082015260400190565b901515815260200190565b60208082526013908201527231b0b73737ba1036b0b730b3b2903a37b5b2b760691b604082015260600190565b90815260200190565b600082198211156104dc57634e487b7160e01b81526011600452602481fd5b50019056fea26469706673582212200aadfb470aa5fe0385be6d04cf55bbb50ab28cdaa54a18e81961e08a027125bb64736f6c63430008010033",
  "immutableReferences": {},
  "source": "// SPDX-License-Identifier: MIT\npragma solidity ^0.8.0;\n\nimport \"@openzeppelin/contracts/utils/introspection/ERC165.sol\";\nimport \"@openzeppelin/contracts/token/ERC721/IERC721.sol\";\n\n// required implementation api for token lock manager\ninterface ITokenLockManager is IERC165 {\n  function tokenUnlocksAt(uint256 tokenId) external view returns (uint);\n  function isTokenLocked(uint256 tokenId) external view returns (bool);\n  function lockToken(uint256 tokenId) external returns (uint);\n  function unlockToken(uint256 tokenId) external returns (uint);\n}\n\n// a token lock manager will handle the locking and unlocking of tokens\ncontract TokenLockManager is ERC165, ITokenLockManager {\n\n  // timestamp when a token should be considered unlocked\n  mapping (uint256 => uint) private _tokenUnlockTime;\n\n  // nft contract\n  IERC721 private _nft;\n\n  constructor(IERC721 nft) {\n    _nft = nft;\n  }\n\n  // ---\n  // Locking functionality\n  // ---\n\n  // the timestamp that a token unlocks at\n  function tokenUnlocksAt(uint256 tokenId) override external view returns (uint) {\n    return _tokenUnlockTime[tokenId];\n  }\n\n  // true if a token is currently locked\n  function isTokenLocked(uint256 tokenId) override external view returns (bool) {\n    return _tokenUnlockTime[tokenId] >= block.timestamp;\n  }\n\n  // lock a token for (up to) 30 days\n  function lockToken(uint256 tokenId) override external returns (uint) {\n    require(_isApprovedOrOwner(tokenId, msg.sender), \"cannot manage token\");\n\n    uint unlockAt = block.timestamp + 30 days;\n    _tokenUnlockTime[tokenId] = unlockAt;\n\n    return unlockAt;\n  }\n\n  // unlock token (shorten unlock time down to 1 day at most)\n  function unlockToken(uint256 tokenId) override external returns (uint) {\n    require(_isApprovedOrOwner(tokenId, msg.sender), \"cannot manage token\");\n\n    uint max = block.timestamp + 1 days;\n    uint current = _tokenUnlockTime[tokenId];\n    uint unlockAt = current > max ? max : current;\n    _tokenUnlockTime[tokenId] = unlockAt;\n\n    return unlockAt;\n  }\n\n  // returns true if operator can manage tokenId\n  function _isApprovedOrOwner(uint256 tokenId, address operator) internal view returns (bool) {\n    address owner = _nft.ownerOf(tokenId);\n    return owner == operator\n      || _nft.getApproved(tokenId) == operator\n      || _nft.isApprovedForAll(owner, operator);\n  }\n\n  // ---\n  // introspection\n  // ---\n\n  function supportsInterface(bytes4 interfaceId) override(ERC165, IERC165) public view virtual returns (bool) {\n    return interfaceId == type(ITokenLockManager).interfaceId || super.supportsInterface(interfaceId);\n  }\n\n}\n",
  "sourcePath": "/Users/bvalosek/projects/bval-nft/packages/solidity-contracts/contracts/TokenLockManager.sol",
  "compiler": {
    "name": "solc",
    "version": "0.8.1+commit.df193b15.Emscripten.clang"
  },
  "schemaVersion": "3.3.3",
  "updatedAt": "2021-06-05T21:30:50.420Z",
  "devdoc": {
    "kind": "dev",
    "methods": {},
    "version": 1
  },
  "userdoc": {
    "kind": "user",
    "methods": {},
    "version": 1
  }
}