{
  "contractName": "UniswapPoolStrategy",
  "abi": [
    {
      "inputs": [
        {
          "internalType": "contract IPair",
          "name": "_pair",
          "type": "address"
        },
        {
          "internalType": "contract IERC20",
          "name": "token",
          "type": "address"
        }
      ],
      "stateMutability": "nonpayable",
      "type": "constructor"
    },
    {
      "inputs": [],
      "name": "pair",
      "outputs": [
        {
          "internalType": "contract IPair",
          "name": "",
          "type": "address"
        }
      ],
      "stateMutability": "view",
      "type": "function"
    },
    {
      "inputs": [],
      "name": "getName",
      "outputs": [
        {
          "internalType": "string",
          "name": "",
          "type": "string"
        }
      ],
      "stateMutability": "pure",
      "type": "function"
    },
    {
      "inputs": [
        {
          "internalType": "address",
          "name": "voter",
          "type": "address"
        }
      ],
      "name": "getVotePower",
      "outputs": [
        {
          "internalType": "uint256",
          "name": "",
          "type": "uint256"
        }
      ],
      "stateMutability": "view",
      "type": "function"
    }
  ],
  "bytecode": "0x608060405234801561001057600080fd5b506040516106c03803806106c083398101604081905261002f916101d7565b600080546001600160a01b0319166001600160a01b03848116919091179182905560408051630dfe168160e01b815290518483169390921691630dfe168191600480820192602092909190829003018186803b15801561008e57600080fd5b505afa1580156100a2573d6000803e3d6000fd5b505050506040513d601f19601f820116820180604052508101906100c691906101b4565b6001600160a01b031614156100e7576000805460ff60a01b191690556101ad565b6000546040805163d21220a760e01b815290516001600160a01b0380851693169163d21220a7916004808301926020929190829003018186803b15801561012d57600080fd5b505afa158015610141573d6000803e3d6000fd5b505050506040513d601f19601f8201168201806040525081019061016591906101b4565b6001600160a01b0316141561018c576000805460ff60a01b1916600160a01b1790556101ad565b60405162461bcd60e51b81526004016101a490610210565b60405180910390fd5b505061025f565b6000602082840312156101c5578081fd5b81516101d081610247565b9392505050565b600080604083850312156101e9578081fd5b82516101f481610247565b602084015190925061020581610247565b809150509250929050565b60208082526016908201527f746f6b656e206973206e6f742070617274207061697200000000000000000000604082015260600190565b6001600160a01b038116811461025c57600080fd5b50565b6104528061026e6000396000f3fe608060405234801561001057600080fd5b50600436106100415760003560e01c806317d7de7c14610046578063a8aa1b3114610064578063bb9c092014610079575b600080fd5b61004e610099565b60405161005b9190610375565b60405180910390f35b61006c6100bf565b60405161005b9190610361565b61008c6100873660046102cd565b6100ce565b60405161005b91906103c8565b60408051808201909152600c81526b155b9a5cddd85c08141bdbdb60a21b602082015290565b6000546001600160a01b031681565b60008060008060009054906101000a90046001600160a01b03166001600160a01b0316630902f1ac6040518163ffffffff1660e01b815260040160606040518083038186803b15801561012057600080fd5b505afa158015610134573d6000803e3d6000fd5b505050506040513d601f19601f8201168201806040525081019061015891906102fb565b509150915060008060149054906101000a900460ff16610178578261017a565b815b6001600160701b0316905060008060009054906101000a90046001600160a01b03166001600160a01b03166318160ddd6040518163ffffffff1660e01b815260040160206040518083038186803b1580156101d457600080fd5b505afa1580156101e8573d6000803e3d6000fd5b505050506040513d601f19601f8201168201806040525081019061020c9190610349565b600080546040516370a0823160e01b815292935090916001600160a01b03909116906370a0823190610242908a90600401610361565b60206040518083038186803b15801561025a57600080fd5b505afa15801561026e573d6000803e3d6000fd5b505050506040513d601f19601f820116820180604052508101906102929190610349565b90508161029f84836103f1565b6102a991906103d1565b955050505050505b919050565b80516001600160701b03811681146102b157600080fd5b6000602082840312156102de578081fd5b81356001600160a01b03811681146102f4578182fd5b9392505050565b60008060006060848603121561030f578182fd5b610318846102b6565b9250610326602085016102b6565b9150604084015163ffffffff8116811461033e578182fd5b809150509250925092565b60006020828403121561035a578081fd5b5051919050565b6001600160a01b0391909116815260200190565b6000602080835283518082850152825b818110156103a157858101830151858201604001528201610385565b818111156103b25783604083870101525b50601f01601f1916929092016040019392505050565b90815260200190565b6000826103ec57634e487b7160e01b81526012600452602481fd5b500490565b600081600019048311821515161561041757634e487b7160e01b81526011600452602481fd5b50029056fea264697066735822122030d243c9a5edd215d42fb78026e7d8d88f4f69218c0436977e8ee0a7501d845764736f6c63430008010033",
  "immutableReferences": {},
  "source": "// SPDX-License-Identifier: MIT\npragma solidity ^0.8.0;\n\nimport \"@openzeppelin/contracts/token/ERC20/ERC20.sol\";\nimport \"./VotePower.sol\";\nimport \"./NFTTokenFaucetV2.sol\";\n\n// vote power from erc20 balance\ncontract ERC20BalanceStrategy is IVotePowerStrategy {\n  IERC20 public token;\n\n  constructor(IERC20 _token) {\n    token = _token;\n  }\n\n  function getName() override external pure returns (string memory) {\n    return \"ERC20 Token Balance\";\n  }\n\n  function getVotePower(address voter) override external view returns (uint256) {\n    return token.balanceOf(voter);\n  }\n}\n\n// vote power from claimable tokens from nft token faucet\ncontract NFTTokenFaucetStrategy is IVotePowerStrategy {\n  NFTTokenFaucetV2 public faucet;\n\n  constructor(NFTTokenFaucetV2 _faucet) {\n    faucet = _faucet;\n  }\n\n  function getName() override external pure returns (string memory) {\n    return \"NFTTokenFaucetV2 Claimable\";\n  }\n\n  function getVotePower(address voter) override external view returns (uint256) {\n    uint256 power = 0;\n    uint256 count = faucet.tokenCount();\n\n    for (uint i = 0; i < count; i++) {\n      ManagedTokenInfo memory info = faucet.tokenInfo(faucet.tokenIdAt(i));\n      power += info.owner == voter ? info.claimable : 0;\n    }\n\n    return power;\n  }\n}\n\n// uniswap / quickswap pair\ninterface IPair {\n  function totalSupply() external view returns (uint);\n  function balanceOf(address owner) external view returns (uint);\n  function getReserves() external view returns (uint112 reserve0, uint112 reserve1, uint32 blockTimestampLast);\n  function token0() external view returns (address);\n  function token1() external view returns (address);\n}\n\n// vote power from pooled tokens in a uniswap/quickswap pair\ncontract UniswapPoolStrategy is IVotePowerStrategy {\n  IPair public pair;\n  bool private _useToken1;\n\n  constructor(IPair _pair, IERC20 token) {\n    pair = _pair;\n    if (pair.token0() == address(token)) {\n      _useToken1 = false;\n    } else if (pair.token1() == address(token)) {\n      _useToken1 = true;\n    } else {\n      revert(\"token is not part pair\");\n    }\n  }\n\n  function getName() override external pure returns (string memory) {\n    return \"Uniswap Pool\";\n  }\n\n  function getVotePower(address voter) override external view returns (uint256) {\n    (uint112 reserve0, uint112 reserve1, ) = pair.getReserves();\n    uint reserve = _useToken1 ? reserve1 : reserve0;\n    uint totalSupply = pair.totalSupply();\n    uint lpBalance = pair.balanceOf(voter);\n    return lpBalance * reserve / totalSupply;\n  }\n}\n",
  "sourcePath": "/Users/bvalosek/projects/bval-nft/packages/solidity-contracts/contracts/VibesStrategies.sol",
  "compiler": {
    "name": "solc",
    "version": "0.8.1+commit.df193b15.Emscripten.clang"
  },
  "schemaVersion": "3.3.3",
  "updatedAt": "2021-06-28T01:18:28.858Z",
  "devdoc": {
    "kind": "dev",
    "methods": {},
    "version": 1
  },
  "userdoc": {
    "kind": "user",
    "methods": {},
    "version": 1
  }
}