{
  "contractName": "Vibes",
  "abi": [
    {
      "inputs": [],
      "stateMutability": "nonpayable",
      "type": "constructor"
    },
    {
      "anonymous": false,
      "inputs": [
        {
          "indexed": true,
          "internalType": "address",
          "name": "owner",
          "type": "address"
        },
        {
          "indexed": true,
          "internalType": "address",
          "name": "spender",
          "type": "address"
        },
        {
          "indexed": false,
          "internalType": "uint256",
          "name": "value",
          "type": "uint256"
        }
      ],
      "name": "Approval",
      "type": "event"
    },
    {
      "anonymous": false,
      "inputs": [
        {
          "indexed": true,
          "internalType": "bytes32",
          "name": "role",
          "type": "bytes32"
        },
        {
          "indexed": true,
          "internalType": "bytes32",
          "name": "previousAdminRole",
          "type": "bytes32"
        },
        {
          "indexed": true,
          "internalType": "bytes32",
          "name": "newAdminRole",
          "type": "bytes32"
        }
      ],
      "name": "RoleAdminChanged",
      "type": "event"
    },
    {
      "anonymous": false,
      "inputs": [
        {
          "indexed": true,
          "internalType": "bytes32",
          "name": "role",
          "type": "bytes32"
        },
        {
          "indexed": true,
          "internalType": "address",
          "name": "account",
          "type": "address"
        },
        {
          "indexed": true,
          "internalType": "address",
          "name": "sender",
          "type": "address"
        }
      ],
      "name": "RoleGranted",
      "type": "event"
    },
    {
      "anonymous": false,
      "inputs": [
        {
          "indexed": true,
          "internalType": "bytes32",
          "name": "role",
          "type": "bytes32"
        },
        {
          "indexed": true,
          "internalType": "address",
          "name": "account",
          "type": "address"
        },
        {
          "indexed": true,
          "internalType": "address",
          "name": "sender",
          "type": "address"
        }
      ],
      "name": "RoleRevoked",
      "type": "event"
    },
    {
      "anonymous": false,
      "inputs": [
        {
          "indexed": true,
          "internalType": "address",
          "name": "from",
          "type": "address"
        },
        {
          "indexed": true,
          "internalType": "address",
          "name": "to",
          "type": "address"
        },
        {
          "indexed": false,
          "internalType": "uint256",
          "name": "value",
          "type": "uint256"
        }
      ],
      "name": "Transfer",
      "type": "event"
    },
    {
      "inputs": [],
      "name": "DEFAULT_ADMIN_ROLE",
      "outputs": [
        {
          "internalType": "bytes32",
          "name": "",
          "type": "bytes32"
        }
      ],
      "stateMutability": "view",
      "type": "function"
    },
    {
      "inputs": [],
      "name": "MINTER_ADMIN_ROLE",
      "outputs": [
        {
          "internalType": "bytes32",
          "name": "",
          "type": "bytes32"
        }
      ],
      "stateMutability": "view",
      "type": "function"
    },
    {
      "inputs": [],
      "name": "MINTER_ROLE",
      "outputs": [
        {
          "internalType": "bytes32",
          "name": "",
          "type": "bytes32"
        }
      ],
      "stateMutability": "view",
      "type": "function"
    },
    {
      "inputs": [
        {
          "internalType": "address",
          "name": "owner",
          "type": "address"
        },
        {
          "internalType": "address",
          "name": "spender",
          "type": "address"
        }
      ],
      "name": "allowance",
      "outputs": [
        {
          "internalType": "uint256",
          "name": "",
          "type": "uint256"
        }
      ],
      "stateMutability": "view",
      "type": "function"
    },
    {
      "inputs": [
        {
          "internalType": "address",
          "name": "spender",
          "type": "address"
        },
        {
          "internalType": "uint256",
          "name": "amount",
          "type": "uint256"
        }
      ],
      "name": "approve",
      "outputs": [
        {
          "internalType": "bool",
          "name": "",
          "type": "bool"
        }
      ],
      "stateMutability": "nonpayable",
      "type": "function"
    },
    {
      "inputs": [
        {
          "internalType": "address",
          "name": "account",
          "type": "address"
        }
      ],
      "name": "balanceOf",
      "outputs": [
        {
          "internalType": "uint256",
          "name": "",
          "type": "uint256"
        }
      ],
      "stateMutability": "view",
      "type": "function"
    },
    {
      "inputs": [
        {
          "internalType": "uint256",
          "name": "amount",
          "type": "uint256"
        }
      ],
      "name": "burn",
      "outputs": [],
      "stateMutability": "nonpayable",
      "type": "function"
    },
    {
      "inputs": [],
      "name": "decimals",
      "outputs": [
        {
          "internalType": "uint8",
          "name": "",
          "type": "uint8"
        }
      ],
      "stateMutability": "view",
      "type": "function"
    },
    {
      "inputs": [
        {
          "internalType": "address",
          "name": "spender",
          "type": "address"
        },
        {
          "internalType": "uint256",
          "name": "subtractedValue",
          "type": "uint256"
        }
      ],
      "name": "decreaseAllowance",
      "outputs": [
        {
          "internalType": "bool",
          "name": "",
          "type": "bool"
        }
      ],
      "stateMutability": "nonpayable",
      "type": "function"
    },
    {
      "inputs": [
        {
          "internalType": "bytes32",
          "name": "role",
          "type": "bytes32"
        }
      ],
      "name": "getRoleAdmin",
      "outputs": [
        {
          "internalType": "bytes32",
          "name": "",
          "type": "bytes32"
        }
      ],
      "stateMutability": "view",
      "type": "function"
    },
    {
      "inputs": [
        {
          "internalType": "bytes32",
          "name": "role",
          "type": "bytes32"
        },
        {
          "internalType": "uint256",
          "name": "index",
          "type": "uint256"
        }
      ],
      "name": "getRoleMember",
      "outputs": [
        {
          "internalType": "address",
          "name": "",
          "type": "address"
        }
      ],
      "stateMutability": "view",
      "type": "function"
    },
    {
      "inputs": [
        {
          "internalType": "bytes32",
          "name": "role",
          "type": "bytes32"
        }
      ],
      "name": "getRoleMemberCount",
      "outputs": [
        {
          "internalType": "uint256",
          "name": "",
          "type": "uint256"
        }
      ],
      "stateMutability": "view",
      "type": "function"
    },
    {
      "inputs": [
        {
          "internalType": "bytes32",
          "name": "role",
          "type": "bytes32"
        },
        {
          "internalType": "address",
          "name": "account",
          "type": "address"
        }
      ],
      "name": "grantRole",
      "outputs": [],
      "stateMutability": "nonpayable",
      "type": "function"
    },
    {
      "inputs": [
        {
          "internalType": "bytes32",
          "name": "role",
          "type": "bytes32"
        },
        {
          "internalType": "address",
          "name": "account",
          "type": "address"
        }
      ],
      "name": "hasRole",
      "outputs": [
        {
          "internalType": "bool",
          "name": "",
          "type": "bool"
        }
      ],
      "stateMutability": "view",
      "type": "function"
    },
    {
      "inputs": [
        {
          "internalType": "address",
          "name": "spender",
          "type": "address"
        },
        {
          "internalType": "uint256",
          "name": "addedValue",
          "type": "uint256"
        }
      ],
      "name": "increaseAllowance",
      "outputs": [
        {
          "internalType": "bool",
          "name": "",
          "type": "bool"
        }
      ],
      "stateMutability": "nonpayable",
      "type": "function"
    },
    {
      "inputs": [
        {
          "internalType": "address",
          "name": "account",
          "type": "address"
        },
        {
          "internalType": "uint256",
          "name": "amount",
          "type": "uint256"
        }
      ],
      "name": "mintTo",
      "outputs": [],
      "stateMutability": "nonpayable",
      "type": "function"
    },
    {
      "inputs": [],
      "name": "name",
      "outputs": [
        {
          "internalType": "string",
          "name": "",
          "type": "string"
        }
      ],
      "stateMutability": "view",
      "type": "function"
    },
    {
      "inputs": [
        {
          "internalType": "bytes32",
          "name": "role",
          "type": "bytes32"
        },
        {
          "internalType": "address",
          "name": "account",
          "type": "address"
        }
      ],
      "name": "renounceRole",
      "outputs": [],
      "stateMutability": "nonpayable",
      "type": "function"
    },
    {
      "inputs": [
        {
          "internalType": "bytes32",
          "name": "role",
          "type": "bytes32"
        },
        {
          "internalType": "address",
          "name": "account",
          "type": "address"
        }
      ],
      "name": "revokeRole",
      "outputs": [],
      "stateMutability": "nonpayable",
      "type": "function"
    },
    {
      "inputs": [
        {
          "internalType": "bytes4",
          "name": "interfaceId",
          "type": "bytes4"
        }
      ],
      "name": "supportsInterface",
      "outputs": [
        {
          "internalType": "bool",
          "name": "",
          "type": "bool"
        }
      ],
      "stateMutability": "view",
      "type": "function"
    },
    {
      "inputs": [],
      "name": "symbol",
      "outputs": [
        {
          "internalType": "string",
          "name": "",
          "type": "string"
        }
      ],
      "stateMutability": "view",
      "type": "function"
    },
    {
      "inputs": [],
      "name": "totalSupply",
      "outputs": [
        {
          "internalType": "uint256",
          "name": "",
          "type": "uint256"
        }
      ],
      "stateMutability": "view",
      "type": "function"
    },
    {
      "inputs": [
        {
          "internalType": "address",
          "name": "recipient",
          "type": "address"
        },
        {
          "internalType": "uint256",
          "name": "amount",
          "type": "uint256"
        }
      ],
      "name": "transfer",
      "outputs": [
        {
          "internalType": "bool",
          "name": "",
          "type": "bool"
        }
      ],
      "stateMutability": "nonpayable",
      "type": "function"
    },
    {
      "inputs": [
        {
          "internalType": "address",
          "name": "sender",
          "type": "address"
        },
        {
          "internalType": "address",
          "name": "recipient",
          "type": "address"
        },
        {
          "internalType": "uint256",
          "name": "amount",
          "type": "uint256"
        }
      ],
      "name": "transferFrom",
      "outputs": [
        {
          "internalType": "bool",
          "name": "",
          "type": "bool"
        }
      ],
      "stateMutability": "nonpayable",
      "type": "function"
    }
  ],
  "bytecode": "0x60806040523480156200001157600080fd5b5060405180604001604052806005815260200164564942455360d81b81525060405180604001604052806005815260200164564942455360d81b81525081818160059080519060200190620000689291906200030b565b5080516200007e9060069060208401906200030b565b5050506000620000936200011960201b60201c565b9050620000b060008051602062001c15833981519152806200011d565b620000da60008051602062001c3583398151915260008051602062001c158339815191526200011d565b620000f560008051602062001c158339815191528262000169565b6200011060008051602062001c358339815191528262000169565b505050620003ee565b3390565b806200012983620001ac565b60405184907fbd79b86ffe0ab8e8776151514217cd7cacd52c909f66475c3af44e129f0b00ff90600090a460009182526020829052604090912060010155565b620001808282620001c160201b6200077c1760201c565b6000828152600160209081526040909120620001a79183906200078a620001d1821b17901c565b505050565b60009081526020819052604090206001015490565b620001cd8282620001f1565b5050565b6000620001e8836001600160a01b0384166200027b565b90505b92915050565b620001fd8282620002ca565b620001cd576000828152602081815260408083206001600160a01b03851684529091529020805460ff191660011790556200023762000119565b6001600160a01b0316816001600160a01b0316837f2f8788117e7eff1d82e926ec794901d17c78024a50270940304540a733656f0d60405160405180910390a45050565b6000620002898383620002f3565b620002c157508154600181810184556000848152602080822090930184905584548482528286019093526040902091909155620001eb565b506000620001eb565b6000918252602082815260408084206001600160a01b0393909316845291905290205460ff1690565b60009081526001919091016020526040902054151590565b8280546200031990620003b1565b90600052602060002090601f0160209004810192826200033d576000855562000388565b82601f106200035857805160ff191683800117855562000388565b8280016001018555821562000388579182015b82811115620003885782518255916020019190600101906200036b565b50620003969291506200039a565b5090565b5b808211156200039657600081556001016200039b565b600281046001821680620003c657607f821691505b60208210811415620003e857634e487b7160e01b600052602260045260246000fd5b50919050565b61181780620003fe6000396000f3fe608060405234801561001057600080fd5b50600436106101285760003560e01c806301ffc9a71461012d57806306fdde0314610156578063095ea7b31461016b5780631339324b1461017e57806318160ddd1461019357806323b872dd1461019b578063248a9ca3146101ae5780632f2ff15d146101c1578063313ce567146101d657806336568abe146101eb57806339509351146101fe57806342966c6814610211578063449a52f81461022457806370a08231146102375780639010d07c1461024a57806391d148541461026a57806395d89b411461027d578063a217fddf14610285578063a457c2d71461028d578063a9059cbb146102a0578063ca15c873146102b3578063d5391393146102c6578063d547741f146102ce578063dd62ed3e146102e1575b600080fd5b61014061013b366004611213565b6102f4565b60405161014d91906112d7565b60405180910390f35b61015e610321565b60405161014d91906112eb565b61014061017936600461116f565b6103b3565b6101866103d1565b60405161014d91906112e2565b6101866103f5565b6101406101a9366004611134565b6103fb565b6101866101bc3660046111b8565b61049b565b6101d46101cf3660046111d0565b6104b0565b005b6101de6104d7565b60405161014d91906116ad565b6101d46101f93660046111d0565b6104dc565b61014061020c36600461116f565b6104fe565b6101d461021f3660046111b8565b61054d565b6101d461023236600461116f565b610561565b6101866102453660046110e8565b610618565b61025d6102583660046111f2565b610633565b60405161014d91906112aa565b6101406102783660046111d0565b610652565b61015e61067b565b61018661068a565b61014061029b36600461116f565b61068f565b6101406102ae36600461116f565b61070a565b6101866102c13660046111b8565b61071e565b610186610735565b6101d46102dc3660046111d0565b610747565b6101866102ef366004611102565b610751565b60006001600160e01b03198216635a05180f60e01b148061031957506103198261079f565b90505b919050565b60606005805461033090611750565b80601f016020809104026020016040519081016040528092919081815260200182805461035c90611750565b80156103a95780601f1061037e576101008083540402835291602001916103a9565b820191906000526020600020905b81548152906001019060200180831161038c57829003601f168201915b5050505050905090565b60006103c76103c06107c4565b84846107c8565b5060015b92915050565b7f70480ee89cb38eff00b7d23da25713d52ce19c6ed428691d22c58b2f615e3d6781565b60045490565b600061040884848461087c565b6001600160a01b0384166000908152600360205260408120816104296107c4565b6001600160a01b03166001600160a01b03168152602001908152602001600020549050828110156104755760405162461bcd60e51b815260040161046c906114d0565b60405180910390fd5b610490856104816107c4565b61048b86856116f2565b6107c8565b506001949350505050565b60009081526020819052604090206001015490565b6104ba8282610992565b60008281526001602052604090206104d2908261078a565b505050565b601290565b6104e682826109b6565b60008281526001602052604090206104d290826109f8565b60006103c761050b6107c4565b8484600360006105196107c4565b6001600160a01b03908116825260208083019390935260409182016000908120918b168152925290205461048b91906116bb565b61055e6105586107c4565b82610a0d565b50565b61057b6000805160206117a28339815191526102786107c4565b6105975760405162461bcd60e51b815260040161046c906114a2565b6105a13082610ae1565b60405163a9059cbb60e01b8152309063a9059cbb906105c690859085906004016112be565b602060405180830381600087803b1580156105e057600080fd5b505af11580156105f4573d6000803e3d6000fd5b505050506040513d601f19601f820116820180604052508101906104d29190611198565b6001600160a01b031660009081526002602052604090205490565b600082815260016020526040812061064b9083610b8f565b9392505050565b6000918252602082815260408084206001600160a01b0393909316845291905290205460ff1690565b60606006805461033090611750565b600081565b6000806003600061069e6107c4565b6001600160a01b03908116825260208083019390935260409182016000908120918816815292529020549050828110156106ea5760405162461bcd60e51b815260040161046c906115e2565b6107006106f56107c4565b8561048b86856116f2565b5060019392505050565b60006103c76107176107c4565b848461087c565b600081815260016020526040812061031990610b9b565b6000805160206117a283398151915281565b6104e68282610ba6565b6001600160a01b03918216600090815260036020908152604080832093909416825291909152205490565b6107868282610bc5565b5050565b600061064b836001600160a01b038416610c4a565b60006001600160e01b03198216637965db0b60e01b1480610319575061031982610c94565b3390565b6001600160a01b0383166107ee5760405162461bcd60e51b815260040161046c9061159e565b6001600160a01b0382166108145760405162461bcd60e51b815260040161046c9061141a565b6001600160a01b0380841660008181526003602090815260408083209487168084529490915290819020849055517f8c5be1e5ebec7d5bd14f71427d1e84f3dd0314c0f7b2291e5b200ac8c7c3b9259061086f9085906112e2565b60405180910390a3505050565b6001600160a01b0383166108a25760405162461bcd60e51b815260040161046c90611559565b6001600160a01b0382166108c85760405162461bcd60e51b815260040161046c90611395565b6108d38383836104d2565b6001600160a01b0383166000908152600260205260409020548181101561090c5760405162461bcd60e51b815260040161046c9061145c565b61091682826116f2565b6001600160a01b03808616600090815260026020526040808220939093559085168152908120805484929061094c9084906116bb565b92505081905550826001600160a01b0316846001600160a01b03166000805160206117c28339815191528460405161098491906112e2565b60405180910390a350505050565b61099b8261049b565b6109ac816109a76107c4565b610cad565b6104d28383610bc5565b6109be6107c4565b6001600160a01b0316816001600160a01b0316146109ee5760405162461bcd60e51b815260040161046c90611627565b6107868282610d11565b600061064b836001600160a01b038416610d94565b6001600160a01b038216610a335760405162461bcd60e51b815260040161046c90611518565b610a3f826000836104d2565b6001600160a01b03821660009081526002602052604090205481811015610a785760405162461bcd60e51b815260040161046c906113d8565b610a8282826116f2565b6001600160a01b03841660009081526002602052604081209190915560048054849290610ab09084906116f2565b90915550506040516000906001600160a01b038516906000805160206117c28339815191529061086f9086906112e2565b6001600160a01b038216610b075760405162461bcd60e51b815260040161046c90611676565b610b13600083836104d2565b8060046000828254610b2591906116bb565b90915550506001600160a01b03821660009081526002602052604081208054839290610b529084906116bb565b90915550506040516001600160a01b038316906000906000805160206117c283398151915290610b839085906112e2565b60405180910390a35050565b600061064b8383610eab565b600061031982610f04565b610baf8261049b565b610bbb816109a76107c4565b6104d28383610d11565b610bcf8282610652565b610786576000828152602081815260408083206001600160a01b03851684529091529020805460ff19166001179055610c066107c4565b6001600160a01b0316816001600160a01b0316837f2f8788117e7eff1d82e926ec794901d17c78024a50270940304540a733656f0d60405160405180910390a45050565b6000610c568383610f08565b610c8c575081546001818101845560008481526020808220909301849055845484825282860190935260409020919091556103cb565b5060006103cb565b6001600160e01b031981166301ffc9a760e01b14919050565b610cb78282610652565b61078657610ccf816001600160a01b03166014610f20565b610cda836020610f20565b604051602001610ceb92919061123b565b60408051601f198184030181529082905262461bcd60e51b825261046c916004016112eb565b610d1b8282610652565b15610786576000828152602081815260408083206001600160a01b03851684529091529020805460ff19169055610d506107c4565b6001600160a01b0316816001600160a01b0316837ff6391f5c32d9c69d2a47ea670b442974b53935d1edc7fd64eb21e047a839171b60405160405180910390a45050565b60008181526001830160205260408120548015610ea1576000610db86001836116f2565b8554909150600090610dcc906001906116f2565b90506000866000018281548110610df357634e487b7160e01b600052603260045260246000fd5b9060005260206000200154905080876000018481548110610e2457634e487b7160e01b600052603260045260246000fd5b600091825260208083209091019290925582815260018901909152604090208490558654879080610e6557634e487b7160e01b600052603160045260246000fd5b600190038181906000526020600020016000905590558660010160008781526020019081526020016000206000905560019450505050506103cb565b60009150506103cb565b81546000908210610ece5760405162461bcd60e51b815260040161046c9061131e565b826000018281548110610ef157634e487b7160e01b600052603260045260246000fd5b9060005260206000200154905092915050565b5490565b60009081526001919091016020526040902054151590565b60606000610f2f8360026116d3565b610f3a9060026116bb565b6001600160401b03811115610f5f57634e487b7160e01b600052604160045260246000fd5b6040519080825280601f01601f191660200182016040528015610f89576020820181803683370190505b509050600360fc1b81600081518110610fb257634e487b7160e01b600052603260045260246000fd5b60200101906001600160f81b031916908160001a905350600f60fb1b81600181518110610fef57634e487b7160e01b600052603260045260246000fd5b60200101906001600160f81b031916908160001a90535060006110138460026116d3565b61101e9060016116bb565b90505b60018111156110b2576f181899199a1a9b1b9c1cb0b131b232b360811b85600f166010811061106057634e487b7160e01b600052603260045260246000fd5b1a60f81b82828151811061108457634e487b7160e01b600052603260045260246000fd5b60200101906001600160f81b031916908160001a90535060049490941c936110ab81611739565b9050611021565b50831561064b5760405162461bcd60e51b815260040161046c90611360565b80356001600160a01b038116811461031c57600080fd5b6000602082840312156110f9578081fd5b61064b826110d1565b60008060408385031215611114578081fd5b61111d836110d1565b915061112b602084016110d1565b90509250929050565b600080600060608486031215611148578081fd5b611151846110d1565b925061115f602085016110d1565b9150604084013590509250925092565b60008060408385031215611181578182fd5b61118a836110d1565b946020939093013593505050565b6000602082840312156111a9578081fd5b8151801515811461064b578182fd5b6000602082840312156111c9578081fd5b5035919050565b600080604083850312156111e2578182fd5b8235915061112b602084016110d1565b60008060408385031215611204578182fd5b50508035926020909101359150565b600060208284031215611224578081fd5b81356001600160e01b03198116811461064b578182fd5b600076020b1b1b2b9b9a1b7b73a3937b61d1030b1b1b7bab73a1604d1b8252835161126d816017850160208801611709565b7001034b99036b4b9b9b4b733903937b6329607d1b601791840191820152835161129e816028840160208801611709565b01602801949350505050565b6001600160a01b0391909116815260200190565b6001600160a01b03929092168252602082015260400190565b901515815260200190565b90815260200190565b600060208252825180602084015261130a816040850160208701611709565b601f01601f19169190910160400192915050565b60208082526022908201527f456e756d657261626c655365743a20696e646578206f7574206f6620626f756e604082015261647360f01b606082015260800190565b6020808252818101527f537472696e67733a20686578206c656e67746820696e73756666696369656e74604082015260600190565b60208082526023908201527f45524332303a207472616e7366657220746f20746865207a65726f206164647260408201526265737360e81b606082015260800190565b60208082526022908201527f45524332303a206275726e20616d6f756e7420657863656564732062616c616e604082015261636560f01b606082015260800190565b60208082526022908201527f45524332303a20617070726f766520746f20746865207a65726f206164647265604082015261737360f01b606082015260800190565b60208082526026908201527f45524332303a207472616e7366657220616d6f756e7420657863656564732062604082015265616c616e636560d01b606082015260800190565b6020808252601490820152737265717569726573204d494e5445525f524f4c4560601b604082015260600190565b60208082526028908201527f45524332303a207472616e7366657220616d6f756e74206578636565647320616040820152676c6c6f77616e636560c01b606082015260800190565b60208082526021908201527f45524332303a206275726e2066726f6d20746865207a65726f206164647265736040820152607360f81b606082015260800190565b60208082526025908201527f45524332303a207472616e736665722066726f6d20746865207a65726f206164604082015264647265737360d81b606082015260800190565b60208082526024908201527f45524332303a20617070726f76652066726f6d20746865207a65726f206164646040820152637265737360e01b606082015260800190565b60208082526025908201527f45524332303a2064656372656173656420616c6c6f77616e63652062656c6f77604082015264207a65726f60d81b606082015260800190565b6020808252602f908201527f416363657373436f6e74726f6c3a2063616e206f6e6c792072656e6f756e636560408201526e103937b632b9903337b91039b2b63360891b606082015260800190565b6020808252601f908201527f45524332303a206d696e7420746f20746865207a65726f206164647265737300604082015260600190565b60ff91909116815260200190565b600082198211156116ce576116ce61178b565b500190565b60008160001904831182151516156116ed576116ed61178b565b500290565b6000828210156117045761170461178b565b500390565b60005b8381101561172457818101518382015260200161170c565b83811115611733576000848401525b50505050565b6000816117485761174861178b565b506000190190565b60028104600182168061176457607f821691505b6020821081141561178557634e487b7160e01b600052602260045260246000fd5b50919050565b634e487b7160e01b600052601160045260246000fdfe9f2df0fed2c77648de5860a4cc508cd0818c85b8b8a1ab4ceeef8d981c8956a6ddf252ad1be2c89b69c2b068fc378daa952ba7f163c4a11628f55a4df523b3efa2646970667358221220cb90ee86bd7929cce08b4f641f0d26343871e2c5b72f8ded268097cf49b99abf64736f6c6343000801003370480ee89cb38eff00b7d23da25713d52ce19c6ed428691d22c58b2f615e3d679f2df0fed2c77648de5860a4cc508cd0818c85b8b8a1ab4ceeef8d981c8956a6",
  "immutableReferences": {},
  "source": "// SPDX-License-Identifier: MIT\npragma solidity ^0.8.0;\n\nimport \"./CoreERC20.sol\";\n\n// @bvalosek ERC-20 Token\ncontract Vibes is CoreERC20 {\n  constructor() CoreERC20(\"VIBES\", \"VIBES\") { }\n}\n",
  "sourcePath": "/Users/bvalosek/projects/bval-nft/packages/solidity-contracts/contracts/VIBES.sol",
  "compiler": {
    "name": "solc",
    "version": "0.8.1+commit.df193b15.Emscripten.clang"
  },
  "schemaVersion": "3.3.3",
  "updatedAt": "2021-06-27T00:21:57.770Z",
  "devdoc": {
    "kind": "dev",
    "methods": {
      "allowance(address,address)": {
        "details": "See {IERC20-allowance}."
      },
      "approve(address,uint256)": {
        "details": "See {IERC20-approve}. Requirements: - `spender` cannot be the zero address."
      },
      "balanceOf(address)": {
        "details": "See {IERC20-balanceOf}."
      },
      "decimals()": {
        "details": "Returns the number of decimals used to get its user representation. For example, if `decimals` equals `2`, a balance of `505` tokens should be displayed to a user as `5,05` (`505 / 10 ** 2`). Tokens usually opt for a value of 18, imitating the relationship between Ether and Wei. This is the value {ERC20} uses, unless this function is overridden; NOTE: This information is only used for _display_ purposes: it in no way affects any of the arithmetic of the contract, including {IERC20-balanceOf} and {IERC20-transfer}."
      },
      "decreaseAllowance(address,uint256)": {
        "details": "Atomically decreases the allowance granted to `spender` by the caller. This is an alternative to {approve} that can be used as a mitigation for problems described in {IERC20-approve}. Emits an {Approval} event indicating the updated allowance. Requirements: - `spender` cannot be the zero address. - `spender` must have allowance for the caller of at least `subtractedValue`."
      },
      "getRoleAdmin(bytes32)": {
        "details": "Returns the admin role that controls `role`. See {grantRole} and {revokeRole}. To change a role's admin, use {_setRoleAdmin}."
      },
      "getRoleMember(bytes32,uint256)": {
        "details": "Returns one of the accounts that have `role`. `index` must be a value between 0 and {getRoleMemberCount}, non-inclusive. Role bearers are not sorted in any particular way, and their ordering may change at any point. WARNING: When using {getRoleMember} and {getRoleMemberCount}, make sure you perform all queries on the same block. See the following https://forum.openzeppelin.com/t/iterating-over-elements-on-enumerableset-in-openzeppelin-contracts/2296[forum post] for more information."
      },
      "getRoleMemberCount(bytes32)": {
        "details": "Returns the number of accounts that have `role`. Can be used together with {getRoleMember} to enumerate all bearers of a role."
      },
      "grantRole(bytes32,address)": {
        "details": "Overload {grantRole} to track enumerable memberships"
      },
      "hasRole(bytes32,address)": {
        "details": "Returns `true` if `account` has been granted `role`."
      },
      "increaseAllowance(address,uint256)": {
        "details": "Atomically increases the allowance granted to `spender` by the caller. This is an alternative to {approve} that can be used as a mitigation for problems described in {IERC20-approve}. Emits an {Approval} event indicating the updated allowance. Requirements: - `spender` cannot be the zero address."
      },
      "name()": {
        "details": "Returns the name of the token."
      },
      "renounceRole(bytes32,address)": {
        "details": "Overload {renounceRole} to track enumerable memberships"
      },
      "revokeRole(bytes32,address)": {
        "details": "Overload {revokeRole} to track enumerable memberships"
      },
      "supportsInterface(bytes4)": {
        "details": "See {IERC165-supportsInterface}."
      },
      "symbol()": {
        "details": "Returns the symbol of the token, usually a shorter version of the name."
      },
      "totalSupply()": {
        "details": "See {IERC20-totalSupply}."
      },
      "transfer(address,uint256)": {
        "details": "See {IERC20-transfer}. Requirements: - `recipient` cannot be the zero address. - the caller must have a balance of at least `amount`."
      },
      "transferFrom(address,address,uint256)": {
        "details": "See {IERC20-transferFrom}. Emits an {Approval} event indicating the updated allowance. This is not required by the EIP. See the note at the beginning of {ERC20}. Requirements: - `sender` and `recipient` cannot be the zero address. - `sender` must have a balance of at least `amount`. - the caller must have allowance for ``sender``'s tokens of at least `amount`."
      }
    },
    "version": 1
  },
  "userdoc": {
    "kind": "user",
    "methods": {},
    "version": 1
  }
}