{
  "contractName": "VIBESWellspring",
  "abi": [
    {
      "inputs": [
        {
          "components": [
            {
              "internalType": "contract IERC20",
              "name": "token",
              "type": "address"
            },
            {
              "internalType": "contract IERC721",
              "name": "nft",
              "type": "address"
            },
            {
              "internalType": "contract ITokenLockManager",
              "name": "lock",
              "type": "address"
            }
          ],
          "internalType": "struct FaucetOptions",
          "name": "options",
          "type": "tuple"
        }
      ],
      "stateMutability": "nonpayable",
      "type": "constructor"
    },
    {
      "anonymous": false,
      "inputs": [
        {
          "indexed": true,
          "internalType": "uint256",
          "name": "tokenId",
          "type": "uint256"
        },
        {
          "indexed": true,
          "internalType": "address",
          "name": "claimer",
          "type": "address"
        },
        {
          "indexed": false,
          "internalType": "uint256",
          "name": "amount",
          "type": "uint256"
        }
      ],
      "name": "Claim",
      "type": "event"
    },
    {
      "anonymous": false,
      "inputs": [
        {
          "indexed": true,
          "internalType": "bytes32",
          "name": "role",
          "type": "bytes32"
        },
        {
          "indexed": true,
          "internalType": "bytes32",
          "name": "previousAdminRole",
          "type": "bytes32"
        },
        {
          "indexed": true,
          "internalType": "bytes32",
          "name": "newAdminRole",
          "type": "bytes32"
        }
      ],
      "name": "RoleAdminChanged",
      "type": "event"
    },
    {
      "anonymous": false,
      "inputs": [
        {
          "indexed": true,
          "internalType": "bytes32",
          "name": "role",
          "type": "bytes32"
        },
        {
          "indexed": true,
          "internalType": "address",
          "name": "account",
          "type": "address"
        },
        {
          "indexed": true,
          "internalType": "address",
          "name": "sender",
          "type": "address"
        }
      ],
      "name": "RoleGranted",
      "type": "event"
    },
    {
      "anonymous": false,
      "inputs": [
        {
          "indexed": true,
          "internalType": "bytes32",
          "name": "role",
          "type": "bytes32"
        },
        {
          "indexed": true,
          "internalType": "address",
          "name": "account",
          "type": "address"
        },
        {
          "indexed": true,
          "internalType": "address",
          "name": "sender",
          "type": "address"
        }
      ],
      "name": "RoleRevoked",
      "type": "event"
    },
    {
      "anonymous": false,
      "inputs": [
        {
          "indexed": true,
          "internalType": "uint256",
          "name": "tokenId",
          "type": "uint256"
        },
        {
          "indexed": false,
          "internalType": "uint256",
          "name": "seedTimestamp",
          "type": "uint256"
        },
        {
          "indexed": false,
          "internalType": "uint256",
          "name": "rate",
          "type": "uint256"
        },
        {
          "indexed": false,
          "internalType": "uint256",
          "name": "totalDays",
          "type": "uint256"
        }
      ],
      "name": "Seed",
      "type": "event"
    },
    {
      "inputs": [],
      "name": "DEFAULT_ADMIN_ROLE",
      "outputs": [
        {
          "internalType": "bytes32",
          "name": "",
          "type": "bytes32"
        }
      ],
      "stateMutability": "view",
      "type": "function"
    },
    {
      "inputs": [],
      "name": "SEEDER_ADMIN_ROLE",
      "outputs": [
        {
          "internalType": "bytes32",
          "name": "",
          "type": "bytes32"
        }
      ],
      "stateMutability": "view",
      "type": "function"
    },
    {
      "inputs": [],
      "name": "SEEDER_ROLE",
      "outputs": [
        {
          "internalType": "bytes32",
          "name": "",
          "type": "bytes32"
        }
      ],
      "stateMutability": "view",
      "type": "function"
    },
    {
      "inputs": [
        {
          "internalType": "uint256",
          "name": "tokenId",
          "type": "uint256"
        }
      ],
      "name": "claim",
      "outputs": [],
      "stateMutability": "nonpayable",
      "type": "function"
    },
    {
      "inputs": [
        {
          "internalType": "uint256",
          "name": "tokenId",
          "type": "uint256"
        },
        {
          "internalType": "uint256",
          "name": "amount",
          "type": "uint256"
        }
      ],
      "name": "claim",
      "outputs": [],
      "stateMutability": "nonpayable",
      "type": "function"
    },
    {
      "inputs": [
        {
          "internalType": "uint256",
          "name": "tokenId",
          "type": "uint256"
        }
      ],
      "name": "claimable",
      "outputs": [
        {
          "internalType": "uint256",
          "name": "",
          "type": "uint256"
        }
      ],
      "stateMutability": "view",
      "type": "function"
    },
    {
      "inputs": [
        {
          "internalType": "uint256",
          "name": "tokenId",
          "type": "uint256"
        }
      ],
      "name": "cleanup",
      "outputs": [],
      "stateMutability": "nonpayable",
      "type": "function"
    },
    {
      "inputs": [
        {
          "internalType": "bytes32",
          "name": "role",
          "type": "bytes32"
        }
      ],
      "name": "getRoleAdmin",
      "outputs": [
        {
          "internalType": "bytes32",
          "name": "",
          "type": "bytes32"
        }
      ],
      "stateMutability": "view",
      "type": "function"
    },
    {
      "inputs": [
        {
          "internalType": "bytes32",
          "name": "role",
          "type": "bytes32"
        },
        {
          "internalType": "uint256",
          "name": "index",
          "type": "uint256"
        }
      ],
      "name": "getRoleMember",
      "outputs": [
        {
          "internalType": "address",
          "name": "",
          "type": "address"
        }
      ],
      "stateMutability": "view",
      "type": "function"
    },
    {
      "inputs": [
        {
          "internalType": "bytes32",
          "name": "role",
          "type": "bytes32"
        }
      ],
      "name": "getRoleMemberCount",
      "outputs": [
        {
          "internalType": "uint256",
          "name": "",
          "type": "uint256"
        }
      ],
      "stateMutability": "view",
      "type": "function"
    },
    {
      "inputs": [
        {
          "internalType": "bytes32",
          "name": "role",
          "type": "bytes32"
        },
        {
          "internalType": "address",
          "name": "account",
          "type": "address"
        }
      ],
      "name": "grantRole",
      "outputs": [],
      "stateMutability": "nonpayable",
      "type": "function"
    },
    {
      "inputs": [
        {
          "internalType": "bytes32",
          "name": "role",
          "type": "bytes32"
        },
        {
          "internalType": "address",
          "name": "account",
          "type": "address"
        }
      ],
      "name": "hasRole",
      "outputs": [
        {
          "internalType": "bool",
          "name": "",
          "type": "bool"
        }
      ],
      "stateMutability": "view",
      "type": "function"
    },
    {
      "inputs": [],
      "name": "name",
      "outputs": [
        {
          "internalType": "string",
          "name": "",
          "type": "string"
        }
      ],
      "stateMutability": "view",
      "type": "function"
    },
    {
      "inputs": [
        {
          "internalType": "bytes32",
          "name": "role",
          "type": "bytes32"
        },
        {
          "internalType": "address",
          "name": "account",
          "type": "address"
        }
      ],
      "name": "renounceRole",
      "outputs": [],
      "stateMutability": "nonpayable",
      "type": "function"
    },
    {
      "inputs": [],
      "name": "reserveBalance",
      "outputs": [
        {
          "internalType": "uint256",
          "name": "",
          "type": "uint256"
        }
      ],
      "stateMutability": "view",
      "type": "function"
    },
    {
      "inputs": [
        {
          "internalType": "bytes32",
          "name": "role",
          "type": "bytes32"
        },
        {
          "internalType": "address",
          "name": "account",
          "type": "address"
        }
      ],
      "name": "revokeRole",
      "outputs": [],
      "stateMutability": "nonpayable",
      "type": "function"
    },
    {
      "inputs": [
        {
          "internalType": "uint256",
          "name": "tokenId",
          "type": "uint256"
        },
        {
          "internalType": "uint256",
          "name": "rate",
          "type": "uint256"
        },
        {
          "internalType": "uint256",
          "name": "totalDays",
          "type": "uint256"
        }
      ],
      "name": "seed",
      "outputs": [],
      "stateMutability": "nonpayable",
      "type": "function"
    },
    {
      "inputs": [
        {
          "internalType": "uint256",
          "name": "tokenId",
          "type": "uint256"
        },
        {
          "internalType": "uint256",
          "name": "rate",
          "type": "uint256"
        },
        {
          "internalType": "uint256",
          "name": "totalDays",
          "type": "uint256"
        },
        {
          "internalType": "uint256",
          "name": "backdateDays",
          "type": "uint256"
        }
      ],
      "name": "seed",
      "outputs": [],
      "stateMutability": "nonpayable",
      "type": "function"
    },
    {
      "inputs": [
        {
          "internalType": "bytes4",
          "name": "interfaceId",
          "type": "bytes4"
        }
      ],
      "name": "supportsInterface",
      "outputs": [
        {
          "internalType": "bool",
          "name": "",
          "type": "bool"
        }
      ],
      "stateMutability": "view",
      "type": "function"
    },
    {
      "inputs": [],
      "name": "tokenCount",
      "outputs": [
        {
          "internalType": "uint256",
          "name": "",
          "type": "uint256"
        }
      ],
      "stateMutability": "view",
      "type": "function"
    },
    {
      "inputs": [
        {
          "internalType": "uint256",
          "name": "index",
          "type": "uint256"
        }
      ],
      "name": "tokenIdAt",
      "outputs": [
        {
          "internalType": "uint256",
          "name": "",
          "type": "uint256"
        }
      ],
      "stateMutability": "view",
      "type": "function"
    },
    {
      "inputs": [
        {
          "internalType": "uint256",
          "name": "tokenId",
          "type": "uint256"
        }
      ],
      "name": "tokenInfo",
      "outputs": [
        {
          "components": [
            {
              "internalType": "uint256",
              "name": "tokenId",
              "type": "uint256"
            },
            {
              "internalType": "address",
              "name": "owner",
              "type": "address"
            },
            {
              "internalType": "uint256",
              "name": "seedTimestamp",
              "type": "uint256"
            },
            {
              "internalType": "uint256",
              "name": "dailyRate",
              "type": "uint256"
            },
            {
              "internalType": "uint256",
              "name": "balance",
              "type": "uint256"
            },
            {
              "internalType": "uint256",
              "name": "claimable",
              "type": "uint256"
            },
            {
              "internalType": "uint256",
              "name": "lastClaimAt",
              "type": "uint256"
            },
            {
              "internalType": "bool",
              "name": "isBurnt",
              "type": "bool"
            }
          ],
          "internalType": "struct ManagedTokenInfo",
          "name": "",
          "type": "tuple"
        }
      ],
      "stateMutability": "view",
      "type": "function"
    }
  ],
  "bytecode": "0x60806040523480156200001157600080fd5b5060405162001e0838038062001e08833981016040819052620000349162000301565b8051600280546001600160a01b039283166001600160a01b031991821617909155604083015160048054918416918316919091179055602083015160038054919093169116179055806200009860008051602062001de8833981519152806200010f565b620000c260008051602062001dc883398151915260008051602062001de88339815191526200010f565b6000620000ce6200015b565b9050620000eb60008051602062001de8833981519152826200015f565b6200010660008051602062001dc8833981519152826200015f565b5050506200039e565b806200011b83620001a2565b60405184907fbd79b86ffe0ab8e8776151514217cd7cacd52c909f66475c3af44e129f0b00ff90600090a460009182526020829052604090912060010155565b3390565b620001768282620001b760201b62000ca31760201c565b60008281526001602090815260409091206200019d91839062000cb1620001c7821b17901c565b505050565b60009081526020819052604090206001015490565b620001c38282620001e7565b5050565b6000620001de836001600160a01b03841662000271565b90505b92915050565b620001f38282620002c0565b620001c3576000828152602081815260408083206001600160a01b03851684529091529020805460ff191660011790556200022d6200015b565b6001600160a01b0316816001600160a01b0316837f2f8788117e7eff1d82e926ec794901d17c78024a50270940304540a733656f0d60405160405180910390a45050565b60006200027f8383620002e9565b620002b757508154600181810184556000848152602080822090930184905584548482528286019093526040902091909155620001e1565b506000620001e1565b6000918252602082815260408084206001600160a01b0393909316845291905290205460ff1690565b60009081526001919091016020526040902054151590565b60006060828403121562000313578081fd5b604051606081016001600160401b03811182821017156200034257634e487b7160e01b83526041600452602483fd5b6040528251620003528162000385565b81526020830151620003648162000385565b60208201526040830151620003798162000385565b60408201529392505050565b6001600160a01b03811681146200039b57600080fd5b50565b611a1a80620003ae6000396000f3fe608060405234801561001057600080fd5b50600436106101125760003560e01c806301ffc9a71461011757806306fdde03146101405780630aa400181461015557806323e74df21461016a578063248a9ca31461017d5780632f2ff15d1461019d57806336568abe146101b0578063379607f5146101c35780635d625bd2146101d657806364a91487146101de5780639010d07c146101e657806391d14854146102065780639f181b5e14610219578063a10954fe14610221578063a217fddf14610229578063af69f57114610231578063c349026314610244578063ca15c87314610257578063cc33c8751461026a578063d1d58b251461028a578063d547741f1461029d578063de7731fe146102b0575b600080fd5b61012a610125366004611453565b6102c3565b60405161013791906115af565b60405180910390f35b6101486102f0565b60405161013791906115c3565b6101686101633660046113eb565b61031c565b005b610168610178366004611493565b61047e565b61019061018b3660046113eb565b610490565b60405161013791906115ba565b6101686101ab366004611403565b6104a5565b6101686101be366004611403565b6104c7565b6101686101d13660046113eb565b6104e9565b6101906104f8565b61019061051c565b6101f96101f4366004611432565b61052e565b604051610137919061155e565b61012a610214366004611403565b61054f565b610190610578565b610190610589565b61019061060a565b61016861023f3660046114be565b61060f565b610168610252366004611432565b6107d1565b6101906102653660046113eb565b610a62565b61027d6102783660046113eb565b610a79565b604051610137919061186f565b6101906102983660046113eb565b610bce565b6101686102ab366004611403565b610c64565b6101906102be3660046113eb565b610c6e565b60006001600160e01b03198216635a05180f60e01b14806102e857506102e882610cc6565b90505b919050565b6040518060400160405280601081526020016f56494245532057656c6c737072696e6760801b81525081565b6000610326610ceb565b90506103406000805160206119c58339815191528261054f565b6103655760405162461bcd60e51b815260040161035c906116f2565b60405180910390fd5b6000828152600760205260409020546103905760405162461bcd60e51b815260040161035c9061166d565b61039982610cef565b6103b55760405162461bcd60e51b815260040161035c90611778565b6002546000838152600760205260409081902054905163a9059cbb60e01b81526001600160a01b039092169163a9059cbb916103f691859190600401611596565b602060405180830381600087803b15801561041057600080fd5b505af1158015610424573d6000803e3d6000fd5b505050506040513d601f19601f8201168201806040525081019061044891906113cb565b50610454600983610d7e565b50506000908152600760209081526040808320839055600682528083208390556008909152812055565b61048b838383600061060f565b505050565b60009081526020819052604090206001015490565b6104af8282610d8a565b600082815260016020526040902061048b9082610cb1565b6104d18282610dae565b600082815260016020526040902061048b9082610df0565b6104f5816000196107d1565b50565b7f20ad95dd8538e54e691b26589405d723e804f58c842a691639775a9f1a2f122281565b6000805160206119c583398151915281565b60008281526001602052604081206105469083610e05565b90505b92915050565b6000918252602082815260408084206001600160a01b0393909316845291905290205460ff1690565b60006105846009610e11565b905090565b6002546040516370a0823160e01b81526000916001600160a01b0316906370a08231906105ba90309060040161155e565b60206040518083038186803b1580156105d257600080fd5b505afa1580156105e6573d6000803e3d6000fd5b505050506040513d601f19601f82011682018060405250810190610584919061147b565b600081565b6000610619610ceb565b90506106336000805160206119c58339815191528261054f565b61064f5760405162461bcd60e51b815260040161035c906116f2565b61065a600986610e1c565b156106775760405162461bcd60e51b815260040161035c9061174a565b61068085610cef565b1561069d5760405162461bcd60e51b815260040161035c906116c4565b60006106a9858561191c565b6002546040516323b872dd60e01b81529192506001600160a01b0316906323b872dd906106de90859030908690600401611572565b602060405180830381600087803b1580156106f857600080fd5b505af115801561070c573d6000803e3d6000fd5b505050506040513d601f19601f8201168201806040525081019061073091906113cb565b506000610740846201518061191c565b61074a904261193b565b9050610757600988610e28565b50600087815260076020908152604080832085905560088252808320899055600582528083208490556006909152908190208290555187907f932e917c28f78255551284d42a1ee49e78fc59ce7aff02716b8362a351d48443906107c09084908a908a906118ce565b60405180910390a250505050505050565b60006107db610ceb565b6003546040516331a9108f60e11b81529192506000916001600160a01b0390911690636352211e906108119087906004016115ba565b60206040518083038186803b15801561082957600080fd5b505afa15801561083d573d6000803e3d6000fd5b505050506040513d601f19601f8201168201806040525081019061086191906113af565b9050816001600160a01b0316816001600160a01b0316146108945760405162461bcd60e51b815260040161035c90611846565b6004805460405163276a28a360e01b81526001600160a01b039091169163276a28a3916108c3918891016115ba565b60206040518083038186803b1580156108db57600080fd5b505afa1580156108ef573d6000803e3d6000fd5b505050506040513d601f19601f8201168201806040525081019061091391906113cb565b156109305760405162461bcd60e51b815260040161035c9061169b565b600061093b85610bce565b9050600081851061094c578161094e565b845b9050600081116109705760405162461bcd60e51b815260040161035c90611720565b6000868152600760205260408120805483929061098e90849061193b565b909155505060025460405163a9059cbb60e01b81526001600160a01b039091169063a9059cbb906109c59087908590600401611596565b602060405180830381600087803b1580156109df57600080fd5b505af11580156109f3573d6000803e3d6000fd5b505050506040513d601f19601f82011682018060405250810190610a1791906113cb565b50836001600160a01b0316867f3ed1528b0fdc7c5207c1bf935e34a667e13656b9ed165260c522be0bc544f30383604051610a5291906115ba565b60405180910390a3505050505050565b60008181526001602052604081206102e890610e11565b610a8161135f565b610a8c600983610e1c565b610aa85760405162461bcd60e51b815260040161035c906117d0565b6000610ab383610cef565b905060405180610100016040528084815260200182610b51576003546040516331a9108f60e11b81526001600160a01b0390911690636352211e90610afc9088906004016115ba565b60206040518083038186803b158015610b1457600080fd5b505afa158015610b28573d6000803e3d6000fd5b505050506040513d601f19601f82011682018060405250810190610b4c91906113af565b610b54565b60005b6001600160a01b031681526000858152600560209081526040808320548285015287835260088252808320548185015287835260079091529020546060820152608001610ba085610bce565b8152600085815260066020908152604091829020549083015201610bc385610cef565b151590529392505050565b6000610bdb600983610e1c565b610bf75760405162461bcd60e51b815260040161035c906117d0565b60008281526007602090815260408083205460069092528220549091610c1d824261193b565b600086815260086020526040812054919250906201518090610c3f908461191c565b610c4991906118fc565b9050838111610c585780610c5a565b835b9695505050505050565b6104d18282610e34565b6000610c7a6009610e11565b8210610c985760405162461bcd60e51b815260040161035c906117a4565b6102e8600983610e05565b610cad8282610e53565b5050565b6000610546836001600160a01b038416610ed8565b60006001600160e01b03198216637965db0b60e01b14806102e857506102e882610f22565b3390565b6003546040516331a9108f60e11b81526000916001600160a01b031690636352211e90610d209085906004016115ba565b60206040518083038186803b158015610d3857600080fd5b505afa925050508015610d68575060408051601f3d908101601f19168201909252610d65918101906113af565b60015b610d74575060016102eb565b60009150506102eb565b60006105468383610f3b565b610d9382610490565b610da481610d9f610ceb565b611052565b61048b8383610e53565b610db6610ceb565b6001600160a01b0316816001600160a01b031614610de65760405162461bcd60e51b815260040161035c906117f7565b610cad82826110b6565b6000610546836001600160a01b038416610f3b565b60006105468383611139565b60006102e882611192565b60006105468383611196565b60006105468383610ed8565b610e3d82610490565b610e4981610d9f610ceb565b61048b83836110b6565b610e5d828261054f565b610cad576000828152602081815260408083206001600160a01b03851684529091529020805460ff19166001179055610e94610ceb565b6001600160a01b0316816001600160a01b0316837f2f8788117e7eff1d82e926ec794901d17c78024a50270940304540a733656f0d60405160405180910390a45050565b6000610ee48383611196565b610f1a57508154600181810184556000848152602080822090930184905584548482528286019093526040902091909155610549565b506000610549565b6001600160e01b031981166301ffc9a760e01b14919050565b60008181526001830160205260408120548015611048576000610f5f60018361193b565b8554909150600090610f739060019061193b565b90506000866000018281548110610f9a57634e487b7160e01b600052603260045260246000fd5b9060005260206000200154905080876000018481548110610fcb57634e487b7160e01b600052603260045260246000fd5b60009182526020808320909101929092558281526001890190915260409020849055865487908061100c57634e487b7160e01b600052603160045260246000fd5b60019003818190600052602060002001600090559055866001016000878152602001908152602001600020600090556001945050505050610549565b6000915050610549565b61105c828261054f565b610cad57611074816001600160a01b031660146111ae565b61107f8360206111ae565b6040516020016110909291906114ef565b60408051601f198184030181529082905262461bcd60e51b825261035c916004016115c3565b6110c0828261054f565b15610cad576000828152602081815260408083206001600160a01b03851684529091529020805460ff191690556110f5610ceb565b6001600160a01b0316816001600160a01b0316837ff6391f5c32d9c69d2a47ea670b442974b53935d1edc7fd64eb21e047a839171b60405160405180910390a45050565b8154600090821061115c5760405162461bcd60e51b815260040161035c906115f6565b82600001828154811061117f57634e487b7160e01b600052603260045260246000fd5b9060005260206000200154905092915050565b5490565b60009081526001919091016020526040902054151590565b606060006111bd83600261191c565b6111c89060026118e4565b6001600160401b038111156111ed57634e487b7160e01b600052604160045260246000fd5b6040519080825280601f01601f191660200182016040528015611217576020820181803683370190505b509050600360fc1b8160008151811061124057634e487b7160e01b600052603260045260246000fd5b60200101906001600160f81b031916908160001a905350600f60fb1b8160018151811061127d57634e487b7160e01b600052603260045260246000fd5b60200101906001600160f81b031916908160001a90535060006112a184600261191c565b6112ac9060016118e4565b90505b6001811115611340576f181899199a1a9b1b9c1cb0b131b232b360811b85600f16601081106112ee57634e487b7160e01b600052603260045260246000fd5b1a60f81b82828151811061131257634e487b7160e01b600052603260045260246000fd5b60200101906001600160f81b031916908160001a90535060049490941c9361133981611982565b90506112af565b5083156105465760405162461bcd60e51b815260040161035c90611638565b6040518061010001604052806000815260200160006001600160a01b0316815260200160008152602001600081526020016000815260200160008152602001600081526020016000151581525090565b6000602082840312156113c0578081fd5b8151610546816119af565b6000602082840312156113dc578081fd5b81518015158114610546578182fd5b6000602082840312156113fc578081fd5b5035919050565b60008060408385031215611415578081fd5b823591506020830135611427816119af565b809150509250929050565b60008060408385031215611444578182fd5b50508035926020909101359150565b600060208284031215611464578081fd5b81356001600160e01b031981168114610546578182fd5b60006020828403121561148c578081fd5b5051919050565b6000806000606084860312156114a7578081fd5b505081359360208301359350604090920135919050565b600080600080608085870312156114d3578081fd5b5050823594602084013594506040840135936060013592509050565b600076020b1b1b2b9b9a1b7b73a3937b61d1030b1b1b7bab73a1604d1b82528351611521816017850160208801611952565b7001034b99036b4b9b9b4b733903937b6329607d1b6017918401918201528351611552816028840160208801611952565b01602801949350505050565b6001600160a01b0391909116815260200190565b6001600160a01b039384168152919092166020820152604081019190915260600190565b6001600160a01b03929092168252602082015260400190565b901515815260200190565b90815260200190565b60006020825282518060208401526115e2816040850160208701611952565b601f01601f19169190910160400192915050565b60208082526022908201527f456e756d657261626c655365743a20696e646578206f7574206f6620626f756e604082015261647360f01b606082015260800190565b6020808252818101527f537472696e67733a20686578206c656e67746820696e73756666696369656e74604082015260600190565b602080825260149082015273746f6b656e20686173206e6f2062616c616e636560601b604082015260600190565b6020808252600f908201526e1d1bdad95b881a5cc81b1bd8dad959608a1b604082015260600190565b6020808252601490820152731d1bdad95b881a185cc81899595b88189d5c9b9d60621b604082015260600190565b6020808252601490820152737265717569726573205345454445525f524f4c4560601b604082015260600190565b60208082526010908201526f6e6f7468696e6720746f20636c61696d60801b604082015260600190565b6020808252601490820152731d1bdad95b88185b1c9958591e481cd95959195960621b604082015260600190565b6020808252601290820152711d1bdad95b881a5cc81b9bdd08189d5c9b9d60721b604082015260600190565b602080825260129082015271696e646578206f7574206f662072616e676560701b604082015260600190565b6020808252600d908201526c34b73b30b634b2103a37b5b2b760991b604082015260600190565b6020808252602f908201527f416363657373436f6e74726f6c3a2063616e206f6e6c792072656e6f756e636560408201526e103937b632b9903337b91039b2b63360891b606082015260800190565b6020808252600f908201526e3737ba103a37b5b2b71037bbb732b960891b604082015260600190565b815181526020808301516001600160a01b03169082015260408083015190820152606080830151908201526080808301519082015260a0808301519082015260c0808301519082015260e0918201511515918101919091526101000190565b9283526020830191909152604082015260600190565b600082198211156118f7576118f7611999565b500190565b60008261191757634e487b7160e01b81526012600452602481fd5b500490565b600081600019048311821515161561193657611936611999565b500290565b60008282101561194d5761194d611999565b500390565b60005b8381101561196d578181015183820152602001611955565b8381111561197c576000848401525b50505050565b60008161199157611991611999565b506000190190565b634e487b7160e01b600052601160045260246000fd5b6001600160a01b03811681146104f557600080fdfe240afcd1926e36e0297a1eb63ba484f52ddbef788e7f4e9b38b0dcc66de129e1a264697066735822122053d31bdfb107cd922d16ffaf2f22951a7824b0a0fc6117cb757ed6b4436d86df64736f6c63430008010033240afcd1926e36e0297a1eb63ba484f52ddbef788e7f4e9b38b0dcc66de129e120ad95dd8538e54e691b26589405d723e804f58c842a691639775a9f1a2f1222",
  "immutableReferences": {},
  "source": "// SPDX-License-Identifier: MIT\npragma solidity ^0.8.0;\n\nimport \"./NFTTokenFaucetV2.sol\";\n\ncontract VIBESWellspring is NFTTokenFaucetV2 {\n\n  string public constant name = 'VIBES Wellspring';\n\n  constructor(FaucetOptions memory options) NFTTokenFaucetV2(options) { }\n\n}\n",
  "sourcePath": "/Users/bvalosek/projects/bval-nft/packages/solidity-contracts/contracts/VIBESWellspring.sol",
  "compiler": {
    "name": "solc",
    "version": "0.8.1+commit.df193b15.Emscripten.clang"
  },
  "schemaVersion": "3.3.3",
  "updatedAt": "2021-06-06T03:57:27.221Z",
  "devdoc": {
    "kind": "dev",
    "methods": {
      "getRoleAdmin(bytes32)": {
        "details": "Returns the admin role that controls `role`. See {grantRole} and {revokeRole}. To change a role's admin, use {_setRoleAdmin}."
      },
      "getRoleMember(bytes32,uint256)": {
        "details": "Returns one of the accounts that have `role`. `index` must be a value between 0 and {getRoleMemberCount}, non-inclusive. Role bearers are not sorted in any particular way, and their ordering may change at any point. WARNING: When using {getRoleMember} and {getRoleMemberCount}, make sure you perform all queries on the same block. See the following https://forum.openzeppelin.com/t/iterating-over-elements-on-enumerableset-in-openzeppelin-contracts/2296[forum post] for more information."
      },
      "getRoleMemberCount(bytes32)": {
        "details": "Returns the number of accounts that have `role`. Can be used together with {getRoleMember} to enumerate all bearers of a role."
      },
      "grantRole(bytes32,address)": {
        "details": "Overload {grantRole} to track enumerable memberships"
      },
      "hasRole(bytes32,address)": {
        "details": "Returns `true` if `account` has been granted `role`."
      },
      "renounceRole(bytes32,address)": {
        "details": "Overload {renounceRole} to track enumerable memberships"
      },
      "revokeRole(bytes32,address)": {
        "details": "Overload {revokeRole} to track enumerable memberships"
      },
      "supportsInterface(bytes4)": {
        "details": "See {IERC165-supportsInterface}."
      }
    },
    "version": 1
  },
  "userdoc": {
    "kind": "user",
    "methods": {},
    "version": 1
  }
}