{
  "contractName": "VotePower",
  "abi": [
    {
      "inputs": [],
      "stateMutability": "nonpayable",
      "type": "constructor"
    },
    {
      "anonymous": false,
      "inputs": [
        {
          "indexed": true,
          "internalType": "bytes32",
          "name": "role",
          "type": "bytes32"
        },
        {
          "indexed": true,
          "internalType": "bytes32",
          "name": "previousAdminRole",
          "type": "bytes32"
        },
        {
          "indexed": true,
          "internalType": "bytes32",
          "name": "newAdminRole",
          "type": "bytes32"
        }
      ],
      "name": "RoleAdminChanged",
      "type": "event"
    },
    {
      "anonymous": false,
      "inputs": [
        {
          "indexed": true,
          "internalType": "bytes32",
          "name": "role",
          "type": "bytes32"
        },
        {
          "indexed": true,
          "internalType": "address",
          "name": "account",
          "type": "address"
        },
        {
          "indexed": true,
          "internalType": "address",
          "name": "sender",
          "type": "address"
        }
      ],
      "name": "RoleGranted",
      "type": "event"
    },
    {
      "anonymous": false,
      "inputs": [
        {
          "indexed": true,
          "internalType": "bytes32",
          "name": "role",
          "type": "bytes32"
        },
        {
          "indexed": true,
          "internalType": "address",
          "name": "account",
          "type": "address"
        },
        {
          "indexed": true,
          "internalType": "address",
          "name": "sender",
          "type": "address"
        }
      ],
      "name": "RoleRevoked",
      "type": "event"
    },
    {
      "inputs": [],
      "name": "DEFAULT_ADMIN_ROLE",
      "outputs": [
        {
          "internalType": "bytes32",
          "name": "",
          "type": "bytes32"
        }
      ],
      "stateMutability": "view",
      "type": "function"
    },
    {
      "inputs": [
        {
          "internalType": "bytes32",
          "name": "role",
          "type": "bytes32"
        }
      ],
      "name": "getRoleAdmin",
      "outputs": [
        {
          "internalType": "bytes32",
          "name": "",
          "type": "bytes32"
        }
      ],
      "stateMutability": "view",
      "type": "function"
    },
    {
      "inputs": [
        {
          "internalType": "bytes32",
          "name": "role",
          "type": "bytes32"
        },
        {
          "internalType": "uint256",
          "name": "index",
          "type": "uint256"
        }
      ],
      "name": "getRoleMember",
      "outputs": [
        {
          "internalType": "address",
          "name": "",
          "type": "address"
        }
      ],
      "stateMutability": "view",
      "type": "function"
    },
    {
      "inputs": [
        {
          "internalType": "bytes32",
          "name": "role",
          "type": "bytes32"
        }
      ],
      "name": "getRoleMemberCount",
      "outputs": [
        {
          "internalType": "uint256",
          "name": "",
          "type": "uint256"
        }
      ],
      "stateMutability": "view",
      "type": "function"
    },
    {
      "inputs": [
        {
          "internalType": "bytes32",
          "name": "role",
          "type": "bytes32"
        },
        {
          "internalType": "address",
          "name": "account",
          "type": "address"
        }
      ],
      "name": "grantRole",
      "outputs": [],
      "stateMutability": "nonpayable",
      "type": "function"
    },
    {
      "inputs": [
        {
          "internalType": "bytes32",
          "name": "role",
          "type": "bytes32"
        },
        {
          "internalType": "address",
          "name": "account",
          "type": "address"
        }
      ],
      "name": "hasRole",
      "outputs": [
        {
          "internalType": "bool",
          "name": "",
          "type": "bool"
        }
      ],
      "stateMutability": "view",
      "type": "function"
    },
    {
      "inputs": [
        {
          "internalType": "bytes32",
          "name": "role",
          "type": "bytes32"
        },
        {
          "internalType": "address",
          "name": "account",
          "type": "address"
        }
      ],
      "name": "renounceRole",
      "outputs": [],
      "stateMutability": "nonpayable",
      "type": "function"
    },
    {
      "inputs": [
        {
          "internalType": "bytes32",
          "name": "role",
          "type": "bytes32"
        },
        {
          "internalType": "address",
          "name": "account",
          "type": "address"
        }
      ],
      "name": "revokeRole",
      "outputs": [],
      "stateMutability": "nonpayable",
      "type": "function"
    },
    {
      "inputs": [
        {
          "internalType": "bytes4",
          "name": "interfaceId",
          "type": "bytes4"
        }
      ],
      "name": "supportsInterface",
      "outputs": [
        {
          "internalType": "bool",
          "name": "",
          "type": "bool"
        }
      ],
      "stateMutability": "view",
      "type": "function"
    },
    {
      "inputs": [
        {
          "internalType": "address",
          "name": "voter",
          "type": "address"
        }
      ],
      "name": "getVotePower",
      "outputs": [
        {
          "internalType": "uint256",
          "name": "",
          "type": "uint256"
        }
      ],
      "stateMutability": "view",
      "type": "function"
    },
    {
      "inputs": [
        {
          "internalType": "contract IVotePowerStrategy[]",
          "name": "strategies",
          "type": "address[]"
        }
      ],
      "name": "setStrategies",
      "outputs": [],
      "stateMutability": "nonpayable",
      "type": "function"
    },
    {
      "inputs": [],
      "name": "getStrategies",
      "outputs": [
        {
          "internalType": "contract IVotePowerStrategy[]",
          "name": "",
          "type": "address[]"
        }
      ],
      "stateMutability": "view",
      "type": "function"
    }
  ],
  "bytecode": "0x60806040523480156200001157600080fd5b5060006200001e62000034565b90506200002d60008262000038565b50620001c5565b3390565b6200004f82826200007b60201b620004401760201c565b6000828152600160209081526040909120620000769183906200044e6200008b821b17901c565b505050565b620000878282620000ab565b5050565b6000620000a2836001600160a01b03841662000135565b90505b92915050565b620000b7828262000184565b62000087576000828152602081815260408083206001600160a01b03851684529091529020805460ff19166001179055620000f162000034565b6001600160a01b0316816001600160a01b0316837f2f8788117e7eff1d82e926ec794901d17c78024a50270940304540a733656f0d60405160405180910390a45050565b6000620001438383620001ad565b6200017b57508154600181810184556000848152602080822090930184905584548482528286019093526040902091909155620000a5565b506000620000a5565b6000918252602082815260408084206001600160a01b0393909316845291905290205460ff1690565b60009081526001919091016020526040902054151590565b610f9380620001d56000396000f3fe608060405234801561001057600080fd5b50600436106100a45760003560e01c806301ffc9a7146100a9578063248a9ca3146100d25780632f2ff15d146100f257806336568abe146101075780639010d07c1461011a57806391d148541461013a5780639a4620b71461014d578063a217fddf14610160578063b49a60bb14610168578063bb9c09201461017d578063ca15c87314610190578063d547741f146101a3575b600080fd5b6100bc6100b7366004610c17565b6101b6565b6040516100c99190610d27565b60405180910390f35b6100e56100e0366004610baf565b6101e3565b6040516100c99190610d32565b610105610100366004610bc7565b6101f8565b005b610105610115366004610bc7565b61021f565b61012d610128366004610bf6565b610241565b6040516100c99190610cc6565b6100bc610148366004610bc7565b610262565b61010561015b366004610aea565b61028b565b6100e56102da565b6101706102df565b6040516100c99190610cda565b6100e561018b366004610ace565b610341565b6100e561019e366004610baf565b61041f565b6101056101b1366004610bc7565b610436565b60006001600160e01b03198216635a05180f60e01b14806101db57506101db82610463565b90505b919050565b60009081526020819052604090206001015490565b6102028282610488565b600082815260016020526040902061021a908261044e565b505050565b61022982826104ac565b600082815260016020526040902061021a90826104ee565b60008281526001602052604081206102599083610503565b90505b92915050565b6000918252602082815260408084206001600160a01b0393909316845291905290205460ff1690565b600061029561050f565b90506102a2600082610262565b6102c75760405162461bcd60e51b81526004016102be90610de5565b60405180910390fd5b815161021a906002906020850190610a49565b600081565b6060600280548060200260200160405190810160405280929190818152602001828054801561033757602002820191906000526020600020905b81546001600160a01b03168152600190910190602001808311610319575b5050505050905090565b600080805b600254811015610418576002818154811061037157634e487b7160e01b600052603260045260246000fd5b6000918252602090912001546040516305dce04960e51b81526001600160a01b039091169063bb9c0920906103aa908790600401610cc6565b60206040518083038186803b1580156103c257600080fd5b505afa1580156103d6573d6000803e3d6000fd5b505050506040513d601f19601f820116820180604052508101906103fa9190610c3f565b6104049083610e69565b91508061041081610efe565b915050610346565b5092915050565b60008181526001602052604081206101db90610513565b610229828261051e565b61044a828261053d565b5050565b6000610259836001600160a01b0384166105c2565b60006001600160e01b03198216637965db0b60e01b14806101db57506101db8261060c565b610491826101e3565b6104a28161049d61050f565b610625565b61021a838361053d565b6104b461050f565b6001600160a01b0316816001600160a01b0316146104e45760405162461bcd60e51b81526004016102be90610e1a565b61044a8282610689565b6000610259836001600160a01b03841661070c565b60006102598383610823565b3390565b60006101db8261087c565b610527826101e3565b6105338161049d61050f565b61021a8383610689565b6105478282610262565b61044a576000828152602081815260408083206001600160a01b03851684529091529020805460ff1916600117905561057e61050f565b6001600160a01b0316816001600160a01b0316837f2f8788117e7eff1d82e926ec794901d17c78024a50270940304540a733656f0d60405160405180910390a45050565b60006105ce8383610880565b6106045750815460018181018455600084815260208082209093018490558454848252828601909352604090209190915561025c565b50600061025c565b6001600160e01b031981166301ffc9a760e01b14919050565b61062f8282610262565b61044a57610647816001600160a01b03166014610898565b610652836020610898565b604051602001610663929190610c57565b60408051601f198184030181529082905262461bcd60e51b82526102be91600401610d3b565b6106938282610262565b1561044a576000828152602081815260408083206001600160a01b03851684529091529020805460ff191690556106c861050f565b6001600160a01b0316816001600160a01b0316837ff6391f5c32d9c69d2a47ea670b442974b53935d1edc7fd64eb21e047a839171b60405160405180910390a45050565b60008181526001830160205260408120548015610819576000610730600183610ea0565b855490915060009061074490600190610ea0565b9050600086600001828154811061076b57634e487b7160e01b600052603260045260246000fd5b906000526020600020015490508087600001848154811061079c57634e487b7160e01b600052603260045260246000fd5b6000918252602080832090910192909255828152600189019091526040902084905586548790806107dd57634e487b7160e01b600052603160045260246000fd5b6001900381819060005260206000200160009055905586600101600087815260200190815260200160002060009055600194505050505061025c565b600091505061025c565b815460009082106108465760405162461bcd60e51b81526004016102be90610d6e565b82600001828154811061086957634e487b7160e01b600052603260045260246000fd5b9060005260206000200154905092915050565b5490565b60009081526001919091016020526040902054151590565b606060006108a7836002610e81565b6108b2906002610e69565b6001600160401b038111156108d757634e487b7160e01b600052604160045260246000fd5b6040519080825280601f01601f191660200182016040528015610901576020820181803683370190505b509050600360fc1b8160008151811061092a57634e487b7160e01b600052603260045260246000fd5b60200101906001600160f81b031916908160001a905350600f60fb1b8160018151811061096757634e487b7160e01b600052603260045260246000fd5b60200101906001600160f81b031916908160001a905350600061098b846002610e81565b610996906001610e69565b90505b6001811115610a2a576f181899199a1a9b1b9c1cb0b131b232b360811b85600f16601081106109d857634e487b7160e01b600052603260045260246000fd5b1a60f81b8282815181106109fc57634e487b7160e01b600052603260045260246000fd5b60200101906001600160f81b031916908160001a90535060049490941c93610a2381610ee7565b9050610999565b5083156102595760405162461bcd60e51b81526004016102be90610db0565b828054828255906000526020600020908101928215610a9e579160200282015b82811115610a9e57825182546001600160a01b0319166001600160a01b03909116178255602090920191600190910190610a69565b50610aaa929150610aae565b5090565b5b80821115610aaa5760008155600101610aaf565b80356101de81610f45565b600060208284031215610adf578081fd5b813561025981610f45565b60006020808385031215610afc578182fd5b82356001600160401b0380821115610b12578384fd5b818501915085601f830112610b25578384fd5b813581811115610b3757610b37610f2f565b838102604051601f19603f83011681018181108582111715610b5b57610b5b610f2f565b604052828152858101935084860182860187018a1015610b79578788fd5b8795505b83861015610ba257610b8e81610ac3565b855260019590950194938601938601610b7d565b5098975050505050505050565b600060208284031215610bc0578081fd5b5035919050565b60008060408385031215610bd9578081fd5b823591506020830135610beb81610f45565b809150509250929050565b60008060408385031215610c08578182fd5b50508035926020909101359150565b600060208284031215610c28578081fd5b81356001600160e01b031981168114610259578182fd5b600060208284031215610c50578081fd5b5051919050565b600076020b1b1b2b9b9a1b7b73a3937b61d1030b1b1b7bab73a1604d1b82528351610c89816017850160208801610eb7565b7001034b99036b4b9b9b4b733903937b6329607d1b6017918401918201528351610cba816028840160208801610eb7565b01602801949350505050565b6001600160a01b0391909116815260200190565b6020808252825182820181905260009190848201906040850190845b81811015610d1b5783516001600160a01b031683529284019291840191600101610cf6565b50909695505050505050565b901515815260200190565b90815260200190565b6000602082528251806020840152610d5a816040850160208701610eb7565b601f01601f19169190910160400192915050565b60208082526022908201527f456e756d657261626c655365743a20696e646578206f7574206f6620626f756e604082015261647360f01b606082015260800190565b6020808252818101527f537472696e67733a20686578206c656e67746820696e73756666696369656e74604082015260600190565b6020808252601b908201527a72657175697265732044454641554c545f41444d494e5f524f4c4560281b604082015260600190565b6020808252602f908201527f416363657373436f6e74726f6c3a2063616e206f6e6c792072656e6f756e636560408201526e103937b632b9903337b91039b2b63360891b606082015260800190565b60008219821115610e7c57610e7c610f19565b500190565b6000816000190483118215151615610e9b57610e9b610f19565b500290565b600082821015610eb257610eb2610f19565b500390565b60005b83811015610ed2578181015183820152602001610eba565b83811115610ee1576000848401525b50505050565b600081610ef657610ef6610f19565b506000190190565b6000600019821415610f1257610f12610f19565b5060010190565b634e487b7160e01b600052601160045260246000fd5b634e487b7160e01b600052604160045260246000fd5b6001600160a01b0381168114610f5a57600080fd5b5056fea2646970667358221220f474d08ea995c2b2c215eee12a09d1194be054dafb73955e767c77026b3b3f8264736f6c63430008010033",
  "immutableReferences": {},
  "source": "// SPDX-License-Identifier: MIT\npragma solidity ^0.8.0;\n\nimport \"@openzeppelin/contracts/access/AccessControlEnumerable.sol\";\n\n// individual vote strategy contract interface\ninterface IVotePowerStrategy {\n  function getVotePower(address voter) external view returns (uint256);\n  function getName() external view returns (string memory);\n}\n\n// simple on-chain vote power facade\ncontract VotePower is AccessControlEnumerable {\n  IVotePowerStrategy[] _strategies;\n\n  constructor () {\n    address msgSender = _msgSender();\n    _setupRole(DEFAULT_ADMIN_ROLE, msgSender);\n  }\n\n  // get the voting power of a specific address\n  function getVotePower(address voter) external view returns (uint256) {\n    uint256 power = 0;\n    for (uint i = 0; i < _strategies.length; i++) {\n      power += _strategies[i].getVotePower(voter);\n    }\n    return power;\n  }\n\n  // set the strategies to be used\n  function setStrategies(IVotePowerStrategy[] memory strategies) public {\n    address msgSender = _msgSender();\n    require(hasRole(DEFAULT_ADMIN_ROLE, msgSender), \"requires DEFAULT_ADMIN_ROLE\");\n    _strategies = strategies;\n  }\n\n  // get the strategies that are in use\n  function getStrategies() public view returns (IVotePowerStrategy[] memory) {\n    return _strategies;\n  }\n\n}\n",
  "sourcePath": "/Users/bvalosek/projects/bval-nft/packages/solidity-contracts/contracts/VotePower.sol",
  "compiler": {
    "name": "solc",
    "version": "0.8.1+commit.df193b15.Emscripten.clang"
  },
  "schemaVersion": "3.3.3",
  "updatedAt": "2021-06-27T21:38:29.103Z",
  "devdoc": {
    "kind": "dev",
    "methods": {
      "getRoleAdmin(bytes32)": {
        "details": "Returns the admin role that controls `role`. See {grantRole} and {revokeRole}. To change a role's admin, use {_setRoleAdmin}."
      },
      "getRoleMember(bytes32,uint256)": {
        "details": "Returns one of the accounts that have `role`. `index` must be a value between 0 and {getRoleMemberCount}, non-inclusive. Role bearers are not sorted in any particular way, and their ordering may change at any point. WARNING: When using {getRoleMember} and {getRoleMemberCount}, make sure you perform all queries on the same block. See the following https://forum.openzeppelin.com/t/iterating-over-elements-on-enumerableset-in-openzeppelin-contracts/2296[forum post] for more information."
      },
      "getRoleMemberCount(bytes32)": {
        "details": "Returns the number of accounts that have `role`. Can be used together with {getRoleMember} to enumerate all bearers of a role."
      },
      "grantRole(bytes32,address)": {
        "details": "Overload {grantRole} to track enumerable memberships"
      },
      "hasRole(bytes32,address)": {
        "details": "Returns `true` if `account` has been granted `role`."
      },
      "renounceRole(bytes32,address)": {
        "details": "Overload {renounceRole} to track enumerable memberships"
      },
      "revokeRole(bytes32,address)": {
        "details": "Overload {revokeRole} to track enumerable memberships"
      },
      "supportsInterface(bytes4)": {
        "details": "See {IERC165-supportsInterface}."
      }
    },
    "version": 1
  },
  "userdoc": {
    "kind": "user",
    "methods": {},
    "version": 1
  }
}